:020000040800F2
:100000004808002029020008E51900080916000820
:10001000E1190008AD080008913200080000000056
:10002000000000000000000000000000D91F0008D0
:10003000510E0008000000008D1C0008C5230008B8
:10004000430200084302000843020008430200087C
:10005000430200084302000843020008430200086C
:10006000ED0E0008790F0008430200084302000863
:1000700043020008090D000843020008430200087B
:10008000430200084302000843020008430200083C
:10009000430200084302000843020008051000085C
:1000A000430200084302000843020008430200081C
:1000B000430200084302000843020008430200080C
:1000C00043020008430200084302000843020008FC
:1000D00043020008430200084302000843020008EC
:1000E00043020008430200084302000843020008DC
:1000F00043020008430200084302000843020008CC
:1001000043020008430200084302000843020008BB
:1001100043020008430200084302000843020008AB
:10012000430200084302000843020008430200089B
:10013000430200084302000843020008430200088B
:10014000430200084302000843020008430200087B
:10015000430200084302000843020008430200086B
:10016000430200084302000843020008430200085B
:10017000430200084302000843020008430200084B
:10018000430200084302000800F002F800F03CF8C7
:100190000AA090E8000C82448344AAF10107DA45E2
:1001A00001D100F031F8AFF2090EBAE80F0013F0F8
:1001B000010F18BFFB1A43F00103184794560000C3
:1001C000B4560000103A24BF78C878C1FAD8520754
:1001D00024BF30C830C144BF04680C6070470000C1
:1001E0000023002400250026103A28BF78C1FBD840
:1001F000520728BF30C148BF0B6070471FB505F0DC
:100200004AFA1FBD10B510BD00F0BCF81146FFF74B
:10021000F5FF04F057FB00F0DAF803B4FFF7F2FF44
:1002200003BC00F0DDF8000009488047094800479A
:10023000FEE7FEE7FEE7FEE7FEE7FEE7FEE7FEE796
:10024000FEE7FEE704480549054A064B70470000F3
:10025000E123000889010008480200204808002026
:100260004804002048040020032A40F2308010F0A7
:10027000030C00F0158011F8013BBCF1020F624441
:1002800098BF11F801CB00F8013B38BF11F8013BD2
:10029000A2F1040298BF00F801CB38BF00F8013B7F
:1002A00011F0030300F03380083AC0F0088051F8E1
:1002B000043B083A51F804CBA0E80810F5E7121DFA
:1002C0005CBF51F8043B40F8043BAFF30080D20719
:1002D00024BF11F8013B11F801CB48BF11F8012BE5
:1002E00024BF00F8013B00F801CB48BF00F8012B08
:1002F000704770477047704710B500F03BF80068D2
:1003000010BD10B5044600F035F8046010BD10B5FE
:10031000203AC0F00B80B1E81850203AA0E81850FD
:10032000B1E81850A0E81850BFF4F5AF5FEA027CBE
:1003300024BFB1E81850A0E8185044BF18C918C02D
:10034000BDE810405FEA827C24BF51F8043B40F8CE
:10035000043B08BF7047D20728BF31F8023B48BFB3
:1003600011F8012B28BF20F8023B48BF00F8012BF1
:100370007047000000487047E401002000487047C3
:10038000E40100207546FFF7F9FFAE460500694617
:10039000534620F00700854618B020B5FFF752FFFE
:1003A000BDE820404FF000064FF000074FF0000876
:1003B0004FF0000B21F00701AC46ACE8C009ACE8F7
:1003C000C009ACE8C009ACE8C0098D46704710B55B
:1003D0000446AFF300802046BDE81040FFF71DBF84
:1003E00001491820ABBEFEE726000200704700005E
:1003F00010B500213A4800F0D7FC01F0BDFE0821FD
:10040000384801F0AEF801280FD1002409E001F0CE
:10041000B3FE0121052000F0FBF80A2004F022FAC7
:10042000641C40F283608442F1DB08E001F0A4FE2A
:100430000021052000F0ECF80A2004F013FA042152
:10044000284801F08EF80028F0D008E001F094FE72
:100450000021481F00F0DCF80A2004F003FA4FF4F2
:100460008071214801F07DF80128EFD09FED1F0A2F
:100470001F4880ED000A08E001F07EFE0121881F80
:1004800000F0C6F80A2004F0EDF90821154801F043
:1004900068F80028F0D09FED170A174880ED000A91
:1004A00008E001F069FE0221052000F0B1F80A2001
:1004B00004F0D8F940210B4801F053F80028F0D09F
:1004C0009FED0E0A0E4880ED000A0121044800F05D
:1004D0006BFC18220B490C48FFF7C6FE10BD00004C
:1004E00040600240000C024000000240000000009A
:1004F000680000209A9931C36C0000200000094375
:1005000070000020400000202801002010B50024C9
:1005100009E001F031FE0121022000F079F80A2003
:1005200004F0A0F9641C40F6AC508442F1DB08E012
:1005300001F022FE0021052000F06AF80A2004F0F4
:1005400091F90421274801F00CF80028F0D008E0C8
:1005500001F012FE0021481F00F05AF80A2004F0B2
:1005600081F94FF48071204800F0FBFF0128EFD0A3
:100570009FED1E0A1E4880ED000A08E001F0FCFD18
:100580000121881F00F044F80A2004F06BF90821CB
:10059000144800F0E6FF0028F0D09FED160A164838
:1005A00080ED000A08E001F0E7FD0221052000F0DF
:1005B0002FF80A2004F056F940210A4800F0D1FF34
:1005C0000028F0D09FED0D0A0D4880ED000A18229A
:1005D0000C490D48FFF748FE9FED0C0A00F0CEFFD6
:1005E00010BD0000000C02400000024000000000AE
:1005F000680000209A9931C36C0000200000094374
:1006000070000020400000202801002080093348AD
:1006100070B52DED028B05460E462C469FED7C0AEB
:10062000B0EE408A36B1012E42D0022E6FD0032E9A
:100630003DD1E8E00021204600F00EF90121002024
:1006400000F00AF90221002000F006F902F048F952
:1006500000EE104AB8EEC00ADFED6E0A20EE200A66
:10066000DFED6D0A80EE201A6C4890ED000A31EE45
:10067000000A80ED000A90ED000ADFED690AB4EE91
:10068000E00AF1EE10FA04DD9FED650A80ED000A44
:100690000DE0624890ED000ADFED620AB4EEE00A78
:1006A000F1EE10FA03D29FED5F0A80ED000AABE095
:1006B0000021084600F0D0F80121204600F0CCF8D7
:1006C0005948D0ED000A00EE104AB8EEC00AB6EE66
:1006D000081A41EE000AB0EE608ABDEEC80AB8EE14
:1006E000C00A38EE400A80ED000A08214F4800F0A9
:1006F00038FF012806D04FF400714D4800F031FF5B
:10070000012805D10221002000F0A6F807E038E01A
:100710000221BDEEC80A10EE100A00F09DF802F0AA
:10072000DFF800EE104AB8EEC00ADFED3A0A20EE1C
:10073000200ADFED400A80EE201A3F4890ED000AC3
:1007400031EE000A80ED000A90ED000ADFED3B0A71
:10075000B4EEE00AF1EE10FA04DD9FED380A80ED08
:10076000000A0DE0344890ED000ADFED350AB4EEE2
:10077000E00AF1EE10FA03D29FED310A80ED000A93
:1007800042E00021084600F067F80121002000F057
:1007900063F80221204600F05FF802F0A1F800EEB5
:1007A000104AB8EEC00ADFED1B0A20EE200ADFED8A
:1007B000250A60EE200A9FED241A80EE810A234864
:1007C000D0ED000A30EE200A80ED000A90ED000A1C
:1007D000DFED1F0AB4EEE00AF1EE10FA04DD9FED42
:1007E0001C0A80ED000A0DE0184890ED000ADFEDCC
:1007F000190AB4EEE00AF1EE10FA03D29FED150AE1
:1008000080ED000A00E000BF00BFBDEC028B70BDB0
:10081000000000004054894B58A3A74F68000020F7
:1008200000007042000070C220010020000C024055
:1008300000000240F90215506C00002033330142E1
:100840009A9931C33D0A973F7684DF4F70000020AC
:10085000000009430000BAC270B504460E46002CE1
:1008600001DA802500E00025201E01DB014600E0C2
:100870004142142901DD143505E0201E01DB01464B
:1008800000E041420D4400BF4FF40051064800F023
:1008900068FE0128F8D04FF0C04101EB4600294620
:1008A00000F0F2FD002570BD000C024000BFFEE725
:1008B000B0EE401A9FED0B2AC0EE821AB3EE042A66
:1008C00061EE821AB0EE610A4C2805D1F0EE001AF2
:1008D00080EE212AB0EE420AFDEEC01AC1ED001AE8
:1008E000704700000000C842B0EE401AB0EE600A47
:1008F0004C2805D1F0EE001A80EE212AB0EE420A13
:1009000081ED000A70472DE9F0412DED028B07467D
:100910000C4615461E46DDF82080204601F0EAFC14
:10092000F0EE408A384601F0E5FCB0EE408A4C2DEE
:100930000BD1B0EE000AC8EE800AF0EE608AB0EE8D
:10094000000AC8EE000AB0EE608A86ED008AC8EDA3
:10095000008ABDEC028BBDE8F0810000B1EE403AA8
:10096000F0EEC33A9FED2A3A73EE633A9FED283AD0
:1009700080EE834AB0EE603A03EE843AB0EE431A5A
:1009800000BFB0EEE03ADFED223A73EEC33AB1EECB
:10099000403ADFED1F4A83EE244AB1EE403A03EEBF
:1009A000843AF0EE431A71EE213AB0EE004A83EE3B
:1009B000843A184BD3ED003A23EE233ADFED143A94
:1009C00083EE234AB0EE442A71EE613AB0EE004A5B
:1009D00083EE843A104BD3ED003A23EE233ADFED59
:1009E0000C3A83EE234AF0EE442A4C280BD1B0EEA9
:1009F000003AC2EE033AB0EE632AB0EE003AC2EE1D
:100A0000833AF0EE632A81ED002AC2ED002A704796
:100A10000000C842600000205C00002070B59FED1F
:100A2000A65AB0EE452A9FEDA45AF0EE452A9FED56
:100A3000A25AB0EE453A9FEDA05AB0EE450A9FED9E
:100A40009E5AF0EE450A9FED9C5AF0EE453A9FED16
:100A50009A5AB0EE454A9FED985AF0EE454A9FEDFE
:100A6000965AB0EE451A9FED945AF0EE451A0024BE
:100A7000002590ED005AB5EEC05AF1EE10FA00DBF9
:100A800000E0012591ED005AB5EEC05AF1EE10FAE2
:100A900001DB002400E00124884E3678AE4210D0FD
:100AA0009FED855A864E86ED005A9FED835A854EFE
:100AB00086ED005A9FED805A834E86ED005A7F4E98
:100AC0003570824E3678A64210D09FED7B5A804E0C
:100AD00086ED005A9FED785A7E4E86ED005A9FEDC6
:100AE000765A7D4E86ED005A784E347090ED005A5D
:100AF0007A4ED6ED005A35EE655AF0EE450A91ED84
:100B0000005A774ED6ED005A35EE655AF0EE451A8A
:100B10006C4E96ED005A30EEC55A724ED6ED005A24
:100B200025EE255AB0EE452A6A4E96ED005A31EE72
:100B3000C55A6D4ED6ED005A25EE255AF0EE453ACF
:100B40006A4E96ED005AF6EE005A25EE255ADFED74
:100B5000685A25EE255A5B4ED6ED005A70EEA55A1E
:100B600025EE255AF0EE452A624E96ED005AF6EE35
:100B7000005A25EE255ADFED5E5A25EE255A554ED0
:100B8000D6ED005A71EEA55A25EE255AB0EE454A2B
:100B90004C4ED6ED005AB0EE006AB0EE605A06EE4A
:100BA000655A494ED6ED005A35EE255A524ED6EDCD
:100BB000005A25EE255ADFED4E5A85EE256AB0EE35
:100BC000463A444ED6ED005AB0EE006AB0EE615A95
:100BD00006EE655A404ED6ED005A35EE255A474E80
:100BE000D6ED005A25EE255ADFED415A85EE256AED
:100BF000F0EE464A324E96ED005A35EE025A35EE88
:100C0000225A35EE035AB0EE450A314E96ED005A9F
:100C100035EE235A35EE045A35EE245AB0EE451A15
:100C2000284E96ED005A284E86ED005A294E96ED34
:100C3000005A294E86ED005A224EC6ED000A254E76
:100C4000C6ED001A1E4E86ED000A214E86ED001AF2
:100C50009FED2B5AB4EEC50AF1EE10FA04DD9FEDBC
:100C6000285AB0EE450A0AE09FED265AB4EEC50AAE
:100C7000F1EE10FA03D29FED235AB0EE450A9FED34
:100C8000205AB4EEC51AF1EE10FA04DD9FED1C5A9D
:100C9000B0EE451A0AE09FED1B5AB4EEC51AF1EE0C
:100CA00010FA03D29FED175AB0EE451A83ED001AE1
:100CB00082ED000A70BD0000000000001D01002050
:100CC0000C01002004010020080100201C0100206C
:100CD000180100201001002014010020E000002075
:100CE000DC000020F8000020EC000020FC000020C8
:100CF0006F12833AF000002000010020F400002071
:100D00000000C8420000C8C210B50B490B4800F0F3
:100D100031F800214FF0804001F044FD00214FF0F8
:100D2000804001F098FD0121880701F03BFD012181
:100D3000024800F039F810BD0080201040600240E9
:100D40000246094B9A4201D2084801E00648103891
:100D500001F000531BB1064B0B40C36002E0044B93
:100D60000B40836070470000106402400060024046
:100D70007D0F7D0F0246094B9A4201D2084801E0DF
:100D80000648103801F000531BB1064B0B40C360FE
:100D900002E0044B0B408360704700001064024087
:100DA000006002407D0F7D0F21B1026842F0010218
:100DB000026003E0026822F001020260704710B591
:100DC00001F080034BB122B1436943F080034361DA
:100DD00003E0436923F08003436180290BD02AB1EB
:100DE000036801F01E042343036004E0036801F07C
:100DF0001E04A343036010BD10B500220268134B0C
:100E00001A40CC680B6823434C6923438C69234305
:100E1000CC6923430C6A23434C6A23438C6A2343E3
:100E20004C6B23438C6B23431A430260426922F0CC
:100E30000702D1E90B3423431A4342610B69436033
:100E40004B6883608B68C36010BD00003F801CF05E
:100E50007047000000B587B00121022000F018FFA4
:100E6000C020059002208DF818008DF8190001208F
:100E70008DF81A0000208DF81B0005A9184800F015
:100E800005FB04220621164800F048FB0422072136
:100E9000134800F043FB0121480500F019FF1148F9
:100EA00000F0C0FB104801900020ADF808004BF6A0
:100EB000FF70ADF80A000020ADF80C004FF4806020
:100EC000ADF80E000001ADF8100001A9054800F0D2
:100ED000D9FB0121034800F099FB07B000BD0000D9
:100EE0000004024000540040801A060010B504209F
:100EF00000F0D4F898B30421194800F032FB01281F
:100F000004D10121174801F04DFC25E0154801F0FE
:100F100055FC00EE100AB8EE400AF1EE040A20EE8D
:100F2000200A9FED111AC0EE010A9FED100A20EE73
:100F3000800ADFED0F0A20EE200AF6EE000A20EE0E
:100F4000200A0C4880ED000A0021064801F02AFC26
:100F50000021044801F07FFC042000F099F810BD46
:100F60000000024000400140A037A04C0080AB438D
:100F70000000C8423400002010B5082000F08EF8B0
:100F800098B30821194800F0ECFA012804D1012196
:100F9000174801F007FC25E0154801F00FFC00EEB2
:100FA000100AB8EE400AF1EE040A20EE200A9FED86
:100FB000111AC0EE010A9FED100A20EE800ADFED43
:100FC0000F0A20EE200AF6EE000A20EE200A0C4856
:100FD00080ED000A0021064801F0E4FB00210448EE
:100FE00001F039FC082000F053F810BD0000024069
:100FF00000480140A037A04C0080AB430000C8422D
:101000003800002010B5202000F048F898B32021C7
:10101000194800F0A6FA012804D10121174801F06F
:10102000C1FB25E0154801F0C9FB00EE100AB8EE3F
:10103000400AF1EE040A20EE200A9FED111AC0EEDC
:10104000010A9FED100A20EE800ADFED0F0A20EE64
:10105000200AF6EE000A20EE200A0C4880ED000A75
:101060000021064801F09EFB0021044801F0F3FB3B
:10107000202000F00DF810BD0000024000180040D4
:10108000A037A04C0080AB430000C8423C000020C9
:101090000149086070470000143C014001460020EF
:1010A000034A12680A400AB1012000E0002070479C
:1010B000143C0140002123498279002A3AD00A4693
:1010C000126803689A430B461A600A1D1268036887
:1010D0009A430B1D1A60027911440A6803681A4387
:1010E0000A60184A0832126803689A43154B08339D
:1010F0001A601A1D126803689A43124B0C331A6067
:101100004279102A0ED11A1F126803681A430D4B38
:1011100008331A601A1D126803681A43094B0C330E
:101120001A600DE00749427911440A6803681A43BE
:101130000A6005E0027911440A6803689A430A606C
:1011400070470000003C014010B592B003AC012193
:10115000084600F0ADFD0121022000F099FD0121BB
:10116000082000F095FD0121102000F091FD0C22D7
:101170000021754800F0D2F90C220121724800F0DC
:10118000CDF90C220421704800F0C8F90C22052189
:101190006D4800F0C3F90C2207216B4800F0BEF93E
:1011A0000C220821684800F0B9F90C220921664890
:1011B00000F0B4F90C220A21634800F0AFF90C22C8
:1011C0000E21614800F0AAF90C220F215E4800F0C0
:1011D000A5F90C2207215D4800F0A0F90C22082196
:1011E0005A4800F09BF90C220921584800F096F962
:1011F0000C220A21554800F091F90C220B2153488A
:1012000000F08CF90C221146504800F087F90C22AE
:101210000D214E4800F082F90C220E214B4800F0BF
:101220007DF90C220F21494800F078F90C220721A2
:10123000474800F073F94CF2B370019002208DF82A
:10124000080003208DF8090000208DF80A008DF8B1
:101250000B0001A93C4800F019F94FF6807001908D
:1012600001A93A4800F012F98020019001A93848FC
:1012700000F00CF900202060022060600820A060CF
:101280001020E060002020616061A061E0612062C8
:101290004FF4805060620020A062E06220630F2063
:1012A000616B0860616B4860616B88600020616BF6
:1012B000C860616B0861616B48614FF00050616B01
:1012C00088610F20A16B0860A16B48602020A16B92
:1012D00088600020A16BC860A16B0861A16B4861A8
:1012E0004FF00050A16B886103A800F04FF8194837
:1012F0004FF0204148600121002000F02DF84FF40C
:10130000C050019001208DF8080003208DF80900DD
:1013100000208DF80A008DF80B0001A90A4800F0A2
:10132000B5F84FF40061084800F024F94FF400507C
:10133000019000208DF808008DF80B0001A90248EB
:1013400000F0A4F812B010BD000C024000100240E2
:10135000000402400303012051B18200A2F1C04207
:10136000126842F001038200A2F1C042136009E05A
:101370008200A2F1C0421268034B1A408300A3F11D
:10138000C0431A6070470000FEFF0F00D0E9011251
:101390001143C268114302691143426911438269D2
:1013A0001143C2691143026A1143426A1143826ABE
:1013B0001143C26A1143026B114302689200A2F109
:1013C000C0421160816808290BD101688900A1F130
:1013D000C041096841F0400201688900A1F1C041A3
:1013E0000A60416B0968426B526841EA0211426B24
:1013F000926841EA0221426B928941EA0241426BC2
:10140000128A41EA0251426B127D41EA0261426B4B
:10141000926911430268521C9200A2F1C04211600D
:10142000C16AB1F5804F1BD1816B0968826B52682C
:1014300041EA0211826B926841EA0221826B128AB0
:1014400041EA0251826B127D41EA0261826B92692C
:10145000114302689200A2F1C042C2F8041107E0F1
:101460006FF0704201688900A1F1C041C1F8042108
:101470007047000001460020024B03EB4102108838
:10148000704700002000006001807047F0B50A46F8
:1014900000210023002400BF3DE0012505FA01F3EF
:1014A000156805EA03049C4234D105684F00032601
:1014B000BE40B543056015794E00B540066835431A
:1014C00005601579012D02D01579022D16D1856898
:1014D0004F000326BE40B543856055794E00B540A8
:1014E000866835438560456801268E40B543456072
:1014F000456896798E40B6B235434560C5684F0061
:101500000326BE40B543C560D5794E00B540C668D8
:101510003543C560491C1029BFD3F0BDF0B5002389
:1015200000244D07ED0E02FA05F3CE1000F1200560
:1015300055F826504E07F70E0F26BE40B543CF1084
:1015400000F1200646F82750CE1000F1200555F88E
:10155000265045EA0304CE1000F1200545F8264048
:10156000F0BD0246002013690B400BB1012000E0E2
:1015700000207047418370470183704710B52DEDFF
:10158000028BB0EE408A1B4890ED000ADFED1A0A8C
:1015900000EE880A80ED000A90ED000ADFED170AE0
:1015A000B4EEE00AF1EE10FA04DD9FED140A80EDCE
:1015B000000A0DE00F4890ED000ADFED110AB4EECD
:1015C000E00AF1EE10FA03D29FED0D0A80ED000A59
:1015D000084890ED000ABCEEC00A10EE101A094847
:1015E00001F037F90121074801F0DCF8BDEC028B6E
:1015F00010BD000024010020A69BC43B008089444C
:10160000000048430044014000BFFEE721B10288CA
:1016100042F00102028004E002884FF6FE731A4095
:101620000280704710B504461348844209D1012155
:10163000480500F05DFB00214FF4001000F058FB5E
:1016400018E00E48844209D10121880500F050FBC2
:1016500000214FF4800000F04BFB0BE0084884426F
:1016600008D10121C80500F043FB00214FF4000020
:1016700000F03EFB10BD0000005400400058004048
:10168000005C00402DE9FF4704460D460026B146A8
:101690000427DFF8CC80A6884FF6C0700640684665
:1016A00000F046FBDDF808802E48B8FBF0F01FFA8A
:1016B00080F946EA0906A68020884FF6FE710840A8
:1016C000208000262849286888420CD828684000D5
:1016D000B8FBF0F087B2042F00DA04273E4309F18B
:1016E0000100208427E0E8884BF6FF71884206D18C
:1016F000286800EB4000B8FBF0F087B209E02868EA
:1017000000EBC00101EB0010B8FBF0F087B247F42A
:101710008047C7F30B0008B947F0010747F40040C2
:1017200006434FF4967009FB00F04FF47A7190FB7A
:10173000F1F0401C2084A683208840F00100208026
:1017400026884FF6F5300640A88869890843064385
:101750002680A889298908432081BDE8FF870000E9
:1017600000127A0040420F00A08601001CB5012142
:101770000B2000F08DFA4FF40040009001208DF80E
:10178000040003208DF8050000208DF806008DF878
:10179000070069461C48FFF779FE48F202000090F6
:1017A00001208DF8040003208DF8050000208DF83D
:1017B00006008DF8070069461448FFF767FE4FF4EE
:1017C0007060009000208DF8040003208DF8050063
:1017D00000208DF806008DF8070069460A48FFF7DB
:1017E00055FE4C20009000208DF8040003208DF859
:1017F000050000208DF806008DF8070069460448B2
:10180000FFF744FE1CBD000000000240000402403F
:10181000000C024070B503461846002803DA404227
:101820002D240C7001E02B240C7001240BE00A2500
:1018300090FBF5F605FB16053035161B8D550A2570
:1018400090FBF5F0641C9442F1DB70BD10B52DEDFA
:10185000028BB0EE408A4FF0804000F0AFFF9FED6A
:10186000080A28EE000ABCEEC00A10EE101A8842E0
:1018700003D90120BDEC028B10BD0020FAE7000067
:10188000802C804B10B5244890ED000ADFED230A30
:1018900020EE200A2248D0ED000A9FED221A01EE28
:1018A000200A214880ED000A204890ED000ADFED73
:1018B0001B0A20EE200A1E48D0ED000A9FED191ADF
:1018C00001EE200A1B4880ED000A174890ED000A3F
:1018D000114880ED000A174890ED000A134880ED8A
:1018E000000A01F0D7FC002001F038FD124880ED1D
:1018F000000A012001F032FD104880ED000A0E4878
:1019000090ED000A064880ED000A0C4890ED000AB0
:10191000074880ED000A10BDE800002023B97E3F93
:10192000D80000205B6EA33BE0000020E400002014
:10193000D4000020DC000020A8000020A40000202B
:101940001D4890ED000ADFED1D0A20EE200A1C481C
:10195000D0ED000A9FED1B1A01EE200A1A4880ED17
:10196000000A1A4890ED000ADFED140A20EE200A62
:101970001748D0ED000A9FED131A01EE200A154812
:1019800080ED000A104890ED000A0B4880ED000A37
:10199000104890ED000A0D4880ED000A0E4890EDC9
:1019A000000A074880ED000A0C4890ED000A08483C
:1019B00080ED000A70470000C400002023B97E3F7C
:1019C000B40000205B6EA33BBC000020C8000020D8
:1019D000B8000020C0000020AC000020B0000020B3
:1019E00000BFFEE77047000070B5002100230F2202
:1019F000C4781CB3174C246804F4E064C4F5E064B4
:101A0000C4F30721C1F10404E3B20A4144789C40C5
:101A1000E1B28478144021430C07210E0E4C057866
:101A20006155047804F01F050124AC4005786D1160
:101A3000AD0005F1E025C5F8004109E0047804F0A7
:101A40001F050124AC40054D0678761145F8264067
:101A500070BD00000CED00E000E400E080E100E07B
:101A600000B58BB00121480400F052F90121022099
:101A700000F00EF9032208212048FFF74FFD4FF434
:101A80008070099000208DF82A008DF82B0002202C
:101A90008DF8280003208DF8290009A91748FFF7C1
:101AA000F5FC40F28F10ADF818000020ADF81A00D8
:101AB00042F2CF0007900020ADF820008DF8220000
:101AC00006A90F4800F0CAFE00210D4800F06AFE8A
:101AD0007020ADF804000120ADF806000220ADF83A
:101AE00010000020039001A9054800F06BFE0821BA
:101AF000034800F0A5FE0BB000BD0000000402404A
:101B00000044014000B58BB00121080200F0E0F86C
:101B10000121052000F0BCF8092207212748FFF722
:101B2000FDFC8020099000208DF82A008DF82B0004
:101B300002208DF8280003208DF8290009A91F48EC
:101B4000FFF7A4FC2020099001208DF82800032035
:101B50008DF8290000208DF82A008DF82B0009A9A6
:101B60001748FFF793FC0020ADF81800ADF81A00F5
:101B700044F29F1007900020ADF820008DF822005D
:101B800006A9104800F06AFE00210E4800F00AFE87
:101B90007020ADF804000120ADF806000220ADF879
:101BA00010000020039001A9064800F00BFE082158
:101BB000044800F045FE0BB000BD000000000240EC
:101BC000000802400020004000B58BB001218020B9
:101BD00000F07EF80121052000F05AF809220621C4
:101BE0002748FFF79BFC4020099000208DF82A0031
:101BF0008DF82B0002208DF8280003208DF8290095
:101C000009A91F48FFF742FC1020099001208DF818
:101C1000280003208DF8290000208DF82A008DF877
:101C20002B0009A91748FFF731FC0020ADF8180078
:101C3000ADF81A0044F29F1007900020ADF8200084
:101C40008DF8220006A9104800F008FE00210E4879
:101C500000F0A8FD7020ADF804000120ADF80600EA
:101C60000220ADF810000020039001A9064800F002
:101C7000A9FD0821044800F0E3FD0BB000BD000001
:101C80000000024000080240001C004070470000B5
:101C900029B1064A12680243044B1A6004E0034A61
:101CA00012688243014B1A607047000030380240CE
:101CB00029B1064A12680243044B1A6004E0034A41
:101CC00012688243014B1A607047000038380240A6
:101CD00029B1064A12680243044B1A6004E0034A21
:101CE00012688243014B1A6070470000403802407E
:101CF00029B1064A12680243044B1A6004E0034A01
:101D000012688243014B1A6070470000203802407D
:101D100029B1064A12680243044B1A6004E0034AE0
:101D200012688243014B1A60704700004438024039
:101D3000F0B5002100220024022500260223324FA4
:101D40003F6807F00C0121B1042905D0082937D1DB
:101D500005E02E4F076036E02D4F076033E02A4F35
:101D60003F1F3F68C7F38056274F3F1F3F6807F06C
:101D70003F036EB1264FB7FBF3F7DFF88CC0ACF131
:101D8000040CDCF800C0CCF3881C07FB0CF40CE05E
:101D90001E4FB7FBF3F7DFF870C0ACF1040CDCF8B2
:101DA00000C0CCF3881C07FB0CF4174F3F1F3F68A3
:101DB000C7F301477F1C7D00B4FBF5F7076002E025
:101DC000124F076000BF00BF0F4F3F6807F0F001E0
:101DD0000909104F7A5C0768D74047600A4F3F688F
:101DE00007F4E051890A0B4F7A5C4768D740876057
:101DF000054F3F6807F46041490B064F7A5C47681E
:101E0000D740C760F0BD0000083802400024F4004D
:101E1000002D31012400002000B589B001210520EA
:101E2000FFF736FF01218803FFF772FF01214020F1
:101E3000FFF74EFF01214FF4A020FFF769FF4FF499
:101E4000E050079001208DF8200003208DF821003C
:101E500000208DF822008DF8230007A95948FFF7CC
:101E600015FB2C20079000208DF8200003208DF812
:101E7000210000208DF822008DF8230007A9524888
:101E8000FFF704FB0221002000F0A8F804200290D4
:101E900001208DF80E0000208DF80C0010208DF828
:101EA0000D0002A8FFF706F908208DF804000120B4
:101EB0008DF805008DF806008DF8070001A8FFF7E2
:101EC00093FD0321002000F089F8082002900120F2
:101ED0008DF80E0000208DF80C0010208DF80D00FC
:101EE00002A8FFF7E7F809208DF8040002208DF81A
:101EF00005008DF8060001208DF8070001A8FFF706
:101F000073FD0521002000F069F8202002900120D7
:101F10008DF80E0000208DF80C0010208DF80D00BB
:101F200002A8FFF7C7F817208DF8040003208DF8EA
:101F300005008DF8060001208DF8070001A8FFF7C5
:101F400053FD0920ADF810000020ADF81200801EEE
:101F500005900020ADF818008DF81A0004A91B4860
:101F600000F07CFC0021194800F01CFC0920ADF8B1
:101F700010000020ADF81200801E05900020ADF882
:101F800018008DF81A0004A9114800F067FC002120
:101F90000F4800F007FC0420ADF810000020ADF859
:101FA0001200801E05900020ADF818008DF81A0070
:101FB00004A9084800F052FC0021064800F0F2FB9A
:101FC00009B000BD0008024000000240004001408E
:101FD00000480140001800407047000030B5002262
:101FE0008B071C0F0F2303FA04F20B4B8C1053F8D2
:101FF00024309343084C8D1044F8253023468C1030
:1020000053F824308C07240F00FA04F42343024CC5
:102010008D1044F8253030BD083801400CB5002043
:10202000019000903448006840F4803032490860E4
:1020300000BF3148006800F4003000900198401C57
:102040000190009818B90198B0F5A04FF1D12A4835
:10205000006800F4003010B10120009001E0002081
:1020600000900098012846D123484030006840F095
:1020700080502149403108602048006840F44040C9
:102080001E4908601C48083000681B490831086078
:102090000846006840F4004008600846006840F4C4
:1020A000A05008601648091F0860081F006840F02B
:1020B0008070091F086000BF0F48006800F00070C2
:1020C0000028F9D040F205700E4908600A4808302F
:1020D000006820F0030008490831086008460068DD
:1020E00040F00200086000BF03480830006800F0BC
:1020F0000C000828F8D10CBD0038024000700040E8
:1021000014544007003C024010B500214FF08040BD
:1021100000F048FB00214FF0804000F09CFB0121C3
:10212000880700F03FFB00210F48FEF73DFE01212C
:102130000D48FEF739FEDFED0D0A9FED0C0A01F0A8
:102140003BF900210846FEF763FA01210020FEF763
:102150005FFA02210020FEF75BFA182204490548C5
:10216000FEF782F810BD0000406002400000000051
:10217000400000202801002010B5FFF7E1FB9FED93
:102180000D0A0D4880ED000A9FED0A0A0B4880ED0C
:10219000000AFFF777FB0A4B0A4A0B490B48FEF788
:1021A0003DFC0748D0ED000A064890ED000A01F01A
:1021B00003F910BD00000000B0000020AC000020BA
:1021C000CC000020D0000020BC000020C000002077
:1021D00070B52DED108B05469FED3F0AB0EE408A9D
:1021E000002436E0204602F09CFE41EC1F0B9FEDE0
:1021F0003B0B53EC102B03F01BF841EC1E0BB0EE25
:102200004E1AF0EE6E1A9FED370B01F0ADFAB0EEFC
:1022100040CAF0EE60CA295DA1F1300002F081FEF3
:1022200041EC1D0B53EC1C2B02F0CEFE41EC1A0BC3
:1022300018EE100A03F0BEF941EC1B0B53EC1A2BFD
:1022400002F02EFC41EC190B02F0F8FB08EE100A2C
:10225000641C042CC6DB052436E0204602F061FE37
:1022600041EC1F0B9FED210B53EC102B03F0B8F842
:1022700041EC1E0BB0EE4E1AF0EE6E1A9FED190BEC
:1022800001F072FAB0EE40CAF0EE60CA295DA1F129
:10229000300002F046FE41EC1D0B53EC1C2B02F00B
:1022A000BBFC41EC1A0B18EE100A03F083F941EC69
:1022B0001B0B53EC1A2B02F0F3FB41EC190B02F051
:1022C000BDFB08EE100A641C0F2CC6DBB0EE480AFA
:1022D000BDEC108B70BD000000000000000000008D
:1022E0000000084000000000000024400000000042
:1022F0000000104070B52DED108B04469FED2C0AA8
:10230000B0EE408A012536E0284602F00AFE41EC94
:102310001F0B9FED280B53EC102B02F089FF41ECB3
:102320001E0BB0EE4E1AF0EE6E1A9FED240B01F06C
:102330001BFAB0EE40CAF0EE60CA615DA1F1300058
:1023400002F0EFFD41EC1D0B53EC1C2B02F03CFEA8
:1023500041EC1A0B18EE100A03F02CF941EC1B0BA0
:1023600053EC1A2B02F09CFB41EC190B02F066FBBC
:1023700008EE100A6D1C042DC6DB6079303800EEC3
:10238000100AF8EEC00AB2EE041A80EE810A30EEAE
:10239000080AB0EE408A20782D2803D1B1EE480A11
:1023A000B0EE408AB0EE480ABDEC108B70BD000064
:1023B00000000000000000000000084000000000D5
:1023C0000000244001200449086004480068401CC3
:1023D0000249086070470000200000201C00002017
:1023E00010B51548006840F47000134908601348A0
:1023F000006840F001001149086000200F490831D1
:1024000008600E4800680E4908400C4908600D48F5
:10241000091D0860081F006820F48020091F08605B
:10242000002006490C310860FFF7F8FD4FF000600E
:1024300001498039086010BD88ED00E00038024095
:10244000FFFFF6FE1030002408B5BD480078532881
:1024500071D1BB48C07D4528FAD1B948807843285E
:1024600009D0482804D04D2878D0542802D176E0ED
:10247000FDF7BEFF61E1B248007950280BD1B048AA
:1024800040794C2807D1AE48C01DFFF7A1FEAD48EA
:1024900080ED000A61E0AA48007949280BD1A848DC
:1024A00040794C2807D1A648C01DFFF791FEA648E9
:1024B00080ED000A51E0A248007944280BD1A048E1
:1024C00040794C2807D19E48C01DFFF781FE9F48E8
:1024D00080ED000A41E09A48007950280BD19848D5
:1024E0004079522807D19648C01DFFF771FE9848E1
:1024F00080ED000A31E09248007949280BD19048DC
:102500004079522807D18E48C01DFFF761FE9148DF
:1025100080ED000A21E08A48007944280CD18848DF
:102520004079522808D18648C01DFFF751FE8A48DD
:1025300080ED000A11E001E1814800794D280CD1BD
:102540007F484079412808D18448854B48227C49FE
:1025500009310090C81DFEF7D6F9EEE04CE078484E
:102560008079572824D17648C079482820D17D48E1
:10257000007801283FD1FFF7E3F97B4800907048CD
:1025800002797A4B00F109011030FEF7BCF9FFF730
:1025900079F9774B774A78497848FEF73FFA7448DB
:1025A000D0ED000A734890ED000A00F005FF22E02C
:1025B00063488079462813D16148C07949280FD1F2
:1025C000FFF7DAFD18226E495D48FDF74DFE002049
:1025D000644908709FED6B0A6B4880ED000A0AE0C1
:1025E00057488079422806D15548C079452802D1FC
:1025F00001205C490870A0E05148093000F074FFE8
:10260000624880ED000A4E48103000F06DFF6048CF
:1026100080ED000A4A488079572822D14848C0797D
:1026200048281ED1FFF78CF9454908794E4A4F4991
:10263000574BD3ED000A554B93ED000AFEF78EF988
:10264000FFF720F94A4B4B4A4B494C48FEF7E6F955
:102650004748D0ED000A474890ED000A00F0ACFE74
:102660006AE0374880794A2816D13548C079312840
:1026700012D1334908794749454AD2ED000A434A05
:1026800092ED000AFEF714F9002142480068FDF7B8
:10269000BFFFFFF771FD4FE0294880794A2816D126
:1026A0002748C079322812D1254908793A49384A51
:1026B000D2ED000A354A92ED000AFEF7F9F8012141
:1026C00035480068FDF7A4FFFFF756FD34E01C48CD
:1026D00080794A2816D11A48C079332812D118496E
:1026E00008792E492A4AD2ED000A284A92ED000ABA
:1026F000FEF7DEF8022129480068FDF789FFFFF7A1
:102700003BFD19E00E488079472815D10C48C07967
:10271000522811D10A49087921491D4AD2ED000AEF
:102720001A4A92ED000AFEF7DFF81D4890ED000A04
:10273000FEF724FFFFF720FD00BF00BF08BD00002B
:1027400028010020EC000020F0000020F400002010
:10275000F8000020FC000020000100205C000020A8
:102760006000002058000020AC000020B0000020D5
:10277000CC000020D0000020BC000020C0000020C1
:102780004000002000000000640000208C000020B9
:102790009000002094000020980000209C00002061
:1027A000A000002021B1028842F00102028004E072
:1027B00002884FF6FE731A40028070470146486A4D
:1027C0007047000070B5002400220023058C4FF6EE
:1027D000FE7635400584028C8388048B4FF68F7516
:1027E0002C40B51E2C400D882C43751E2A408D8927
:1027F0002A434D882A43104DA84202D00F4DA842CB
:1028000013D14FF6F7752A40CD892A434FF6FB7551
:102810002A408D882A434FF6FF652B404FF6FF551F
:102820002B400D8A2B434D8A2B43838004838D6874
:102830004563028470BD00000000014000040140B7
:102840000A460021018B4FF6F773194011430183AB
:102850007047416370474162704700000022028860
:10286000184B98420ED0184B98420BD0B0F1804FC5
:1028700008D0164B984205D0154B984202D0154B04
:10288000984204D14FF68F731A404B881A43124B6B
:10289000984207D0114B984204D04FF6FF431A409C
:1028A0000B891A4302804B68C3620B880385054B72
:1028B000984202D0044B984201D18B7A03860123BF
:1028C0008382704700000140000401400004004082
:1028D00000080040000C00400010004000140040C0
:1028E00010B54FF480510748FEF746FE322400BF72
:1028F000201EA4F10104FBD14FF480510148FEF7E2
:1029000039FE10BD000C024000B599B001216348AA
:10291000FFF7BEF90121C804FFF7DAF901210846E3
:10292000FFF7D6F90420ADF800000020ADF8020052
:10293000801E01900020ADF808008DF80A0069465D
:102940004FF08040FFF78AFF00214FF08040FFF7F3
:1029500029FF0320179002208DF8600000208DF8D9
:10296000620003208DF8610001208DF8630017A933
:102970004B48FEF78BFD082200214948FEF7CEFDAB
:10298000082201214648FEF7C9FD4FF4E1301390BB
:102990000020ADF85000ADF85200ADF85400ADF88D
:1029A00058000C20ADF8560013A93E4800F006FC74
:1029B00001213C4800F0EDFB40213A4800F0E0FBEB
:1029C00001228021374800F0F0FB012240213548E8
:1029D00000F0EBFB4FF0006004903248001D0590C2
:1029E00031480690402007900020089009904FF44D
:1029F00080600A9000200B900C900D900E900F902C
:102A00000120109000201190129004A92748FEF791
:102A1000F3F901212548FEF7C7F94FF00060049053
:102A20002048001D0590224806900020079018209D
:102A30000890002009904FF480600A9000200B90CD
:102A40000C904FF480700D904FF440300E900020A9
:102A50000F900120109000201190129004A91348AB
:102A60003038FEF7C9F9012110483038FEF79CF9DB
:102A70000D208DF80C0000208DF80D008DF80E0053
:102A800001208DF80F0003A8FEF7AEFF01221021F0
:102A900006483038FEF793F919B000BD0100200058
:102AA00000000240004C00404001002070600240E5
:102AB0002801002070B505460C4600210948FEF7A4
:102AC00073F9224629460848FDF7CEFB0749054819
:102AD000FEF736F903487038446701210148FEF7D4
:102AE00063F970BD706002404001002020000020AA
:102AF00000B52DED068B83B0F0EE408AFEA0006895
:102B00000290FE48BDF8081001809DF80A108170FF
:102B1000FB4991ED000AF2EE040A20EE200ABDEE18
:102B2000C00A10EE100A0522F449C91CFEF772FE15
:102B3000F44991ED000AF2EE040A20EE200ABDEEFF
:102B4000C00A10EE100A0522EC490831FEF762FEB9
:102B50009FEDED0A28EE800ABDEEC00A10EE100AC5
:102B60000722E6490D31FEF755FE9FEDE80AB0EE6B
:102B7000408AE7A000680190E048BDF80410818217
:102B80009DF806108175E34991ED000ADFEDE20A38
:102B900020EE200ABDEEC00A10EE100A0622D74928
:102BA0001731FEF737FEDD4991ED000ADFEDDA0A55
:102BB00020EE200ABDEEC00A10EE100A0622CF4910
:102BC0001D31FEF727FED64991ED000ADFEDD20A4E
:102BD00020EE200ABDEEC00A10EE100A0622C749F8
:102BE0002331FEF717FECB4890ED000AB1EE400A04
:102BF000F3EE040A30EE200ADFEDCA0A20EE200AC6
:102C0000DFEDC90A80EE201AB0EE419AB0EE490A13
:102C100000F0F8FCF2EE0F0A60EE209ABF4890ED4B
:102C2000000ADFEDC00A20EE200ADFEDBF0A80EEC9
:102C3000201AB0EE419AB0EE490A00F0E3FC29EE0A
:102C4000800AB0EE408A9FEDB40A28EE000ABDEE7D
:102C5000C00A10EE100A0622A8492931FEF7DAFD53
:102C6000AC4890ED000AB1EE400AF3EE040A30EEF3
:102C7000200ADFEDAC0A20EE200ADFEDAB0A80EE81
:102C8000201AB0EE419AB0EE490A01F095FBFAEE37
:102C90000F0A60EE209AA14890ED000ADFEDA10A2C
:102CA00020EE200ADFEDA00A80EE201AB0EE419A55
:102CB000B0EE490A00F0A6FCF3EE040A59EE800AD1
:102CC000B0EE608A9FED940A28EE000ABDEEC00ABD
:102CD00010EE100A062289492F31FEF79BFD8F481E
:102CE00090ED000ADFED8F0A20EE200ADFED8E0A5C
:102CF00080EE201AB0EE419AB0EE490A01F05CFB7A
:102D0000F2EE000AB2EE0F1A41EE000AB0EE608A4F
:102D10009FED810A28EE000ABDEEC00A10EE100AEF
:102D2000062276493531FEF775FD7A4890ED000AA6
:102D3000B1EE400AF3EE040A30EE200ADFED790A24
:102D400020EE200ADFED780A80EE201AB0EE419ADC
:102D5000B0EE490A00F056FCF2EE0F0A60EE209A3F
:102D60006E4890ED000ADFED6F0A20EE200ADFEDDD
:102D70006E0A80EE201AB0EE419AB0EE490A00F0D9
:102D800041FC69EE809A634890ED000AB1EE400A7A
:102D9000F3EE040A30EE200ADFED620A20EE200A8C
:102DA000DFED610A80EE201AB0EE419AB0EE490ADA
:102DB00000F028FCF2EE070A20EE20AA574890ED1A
:102DC000000ADFED580A20EE200ADFED570A80EEF8
:102DD000201AB0EE419AB0EE490A00F013FC2AEE38
:102DE00000AA4F4890ED000ADFED4E0A20EE200ABF
:102DF000DFED4D0A80EE201AB0EE419AB0EE490A9E
:102E000000F000FC4AEE009A424890ED000AB1EE54
:102E1000400AF3EE040A30EE200ADFED420A20EE0B
:102E2000200ADFED410A80EE201AB0EE419AB0EEA2
:102E3000490A00F0E7FBF2EE070A20EE20AA374825
:102E400090ED000ADFED370A20EE200ADFED360AAA
:102E500080EE201AB0EE419AB0EE490A01F0ACFAC9
:102E60002AEE00AA2E4890ED000ADFED2E0A20EE91
:102E7000200ADFED2D0A80EE201AB0EE419AB0EE66
:102E8000490A01F099FA4AEE409AB0EE698A9FED3C
:102E9000220A28EE000ABDEEC00A10EE100A062231
:102EA00016493B31FEF7B6FC1A4890ED000AB1EE28
:102EB000400AF3EE040A30EE200ADFED1A0A20EE93
:102EC000200ADFED190A80EE201AB0EE419AB0EE2A
:102ED000490A01F071FAFAEE0F0A20EE20AA0F4813
:102EE00090ED000ADFED0F0A20EE200ADFED0E0A5A
:102EF00080EE201A1AE0000076656C008001002048
:102F0000DC000020E000002000007A440000000007
:102F100061726D00680000200000C8426C00002053
:102F200070000020DB0F49C000003443B0EE419A2E
:102F3000B0EE490A00F066FBF3EE049A5AEE009AEE
:102F40008B4890ED000AB1EE400AF3EE040A30EE31
:102F5000200A5FED0C0A20EE200A5FED0D0A80EEDC
:102F6000201AB0EE419AB0EE490A01F025FAF2EECD
:102F7000070A20EE20AA7F4890ED000A5FED170AAD
:102F800020EE200A5FED180A80EE201AB0EE419A7A
:102F9000B0EE490A00F036FB2AEE00AA764890ED22
:102FA000000A5FED200A20EE200A5FED210A80EE84
:102FB000201AB0EE419AB0EE490A00F023FB4AEE27
:102FC000409A6B4890ED000AB1EE400AF3EE040A15
:102FD00030EE200A5FED2D0A20EE200A5FED2E0A6A
:102FE00080EE201AB0EE419AB0EE490A01F0E4F901
:102FF000F2EE070A20EE20AA5E4890ED000A5FED8F
:10300000370A20EE200A5FED380A80EE201AB0EE73
:10301000419AB0EE490A01F0CFF92AEE00AA5648CB
:1030200090ED000A5FED410A20EE200A5FED420AB2
:1030300080EE201AB0EE419AB0EE490A01F0BCF9D8
:103040004AEE009AB0EE698A1FED4D0A28EE000A9A
:10305000BDEEC00A10EE100A06224849FEF7DAFB60
:10306000444890ED000A5FED510A20EE200A5FED22
:10307000520A80EE201AB0EE419AB0EE490A01F0F1
:103080009BF9F2EE009AF2EE0F0A40EE809A394870
:1030900090ED000A5FED5D0A20EE200A5FED5E0A0A
:1030A00080EE201AB0EE419AB0EE490A01F084F9A0
:1030B000F2EE070A20EE20AA2F4890ED000A5FEDFD
:1030C000670A20EE200A5FED680A80EE201AB0EE53
:1030D000419AB0EE490A00F095FA4AEE009A254866
:1030E00090ED000A5FED710A20EE200A5FED720A92
:1030F00080EE201AB0EE419AB0EE490A00F082FA52
:10310000F2EE070A20EE20AA1B4890ED000A5FEDC0
:103110007B0A20EE200A5FED7C0A80EE201AB0EEDA
:10312000419AB0EE490A01F047F94AEE009AB0EE32
:10313000698A1FED870A28EE000ABDEEC00A10EE6C
:10314000100A06220D49891DFEF764FB0D200B496C
:10315000413981F84D000A2081F84E004F2107487F
:103160004138FFF7A7FC03B0BDEC068B00BD0000A3
:10317000680000206C00002070000020C1010020C9
:1031800001F40072B2F5007F00D100BFCA43028093
:10319000704721B1828942F40052828104E0828921
:1031A0004DF6FF731A40828170471AB1838A0B4330
:1031B000838202E0838A8B43838270472DE9FF4735
:1031C00005460E460024A14600BFA046B08900B1C6
:1031D00000BF2C8A24F44054F08804432C82AC892C
:1031E00041F20C608443B0883189084371890843F7
:1031F0000443AC81AC8A24F44074B0890443AC82AB
:103200006846FEF795FD2048854202D01F4885425A
:1032100002D1DDF80C9001E0DDF80890A88900F4F7
:10322000004040B109EBC90000EB091031684900CA
:10323000B0FBF1F707E009EBC90000EB09103168BA
:103240008900B0FBF1F76420B7FBF0F0040120091E
:10325000642101FB1078A88900F4004040B13220BD
:1032600000EBC800B0FBF1F000F00700044308E0F9
:10327000322000EB08106421B0FBF1F000F00F00E9
:1032800004432C81BDE8FF87001001400014014079
:1032900000BFFEE710B5002451E02046FEF7EAF833
:1032A000284941F82400084650F82400264951F8DE
:1032B0002410401A00EE100AB8EEC00A234800EBB2
:1032C000840080ED000A214800EB840090ED000AA4
:1032D000DFED1F0AB4EEE00AF1EE10FA0EDD1B4836
:1032E00000EB840090ED000ADFED1A0A30EE600A70
:1032F000164800EB840080ED000A19E0134800EB4B
:10330000840090ED000ADFED140AB4EEE00AF1EE5D
:1033100010FA0DD20D4800EB840090ED000ADFEDAD
:103320000D0A30EE200A094800EB840080ED000A07
:10333000044850F82400044941F82400641C022C7D
:10334000ABDB10BD7C000020840000207400002056
:103350000000004700008047000000C7022802DB91
:103360009FED110A704710B1012818D10BE00F49E9
:1033700091ED000A9FED0E1A20EE010A9FED0D1A45
:10338000C0EE010A0BE0094991ED010A9FED081A10
:1033900020EE010A9FED071AC0EE010A00BF00BF30
:1033A000B0EE600ADEE700000000000074000020BC
:1033B000000070426766E64070B52DED0A8BB0EEF6
:1033C000408AF0EE608AB5EEC08AF1EE10FA04DBB6
:1033D00010213E48FEF7CEF803E010213B48FEF7EF
:1033E000CBF8F5EEC08AF1EE10FA04DB2021374865
:1033F000FEF7C0F803E020213448FEF7BDF8B7EE31
:10340000000A28EE000A10EE101A084602F0D2F860
:1034100041EC1C0BB0EE4C0AF0EE6C0A00F09AF98D
:10342000B0EE40BAF0EE60BA9FED290B53EC102BD2
:1034300051EC1B0B01F0C8FD41EC1A0B9FED260B64
:1034400053EC102B01F0CCFF41EC190B01F03CFDCB
:103450000446B7EE000A28EE800A10EE101A08465D
:1034600002F0A8F841EC1C0BB0EE4C0AF0EE6C0A2E
:1034700000F070F9B0EE40BAF0EE60BA9FED140BB8
:1034800053EC102B51EC1B0B01F09EFD41EC1A0B81
:103490009FED110B53EC102B01F0A2FF41EC190B27
:1034A00001F012FD054621460D48FFF7D2F92946E5
:1034B0000C48FFF7CEF901210948FFF773F9012104
:1034C0000848FFF76FF9BDEC0A8B70BD0008024099
:1034D0000000000000006540000000000000F03F18
:1034E000001C00400020004070B52DED108B0546FB
:1034F0009FED280AB0EE408A012436E0204601F014
:1035000010FD41EC1F0B9FED240B53EC102B01F031
:103510008FFE41EC1E0BB0EE4E1AF0EE6E1A9FEDD0
:10352000200B00F021F9B0EE40CAF0EE60CA295D30
:10353000A1F1300001F0F5FC41EC1D0B53EC1C2B0C
:1035400001F042FD41EC1A0B18EE100A02F032F8BD
:1035500041EC1B0B53EC1A2B01F0A2FA41EC190BB6
:1035600001F06CFA08EE100A641C062CC6DB9FED15
:103570000E0AC8EE000AB0EE608A28782D2803D122
:10358000B1EE480AB0EE408AB0EE480ABDEC108BAE
:1035900070BD0000000000000000000000001440AA
:1035A00000000000000024400000C84203B401985D
:1035B0004100009850EAC12018BF04204A0D18BFEE
:1035C00040F0010040F2FF72B2EB515F08BF40F0E3
:1035D0000200012808BF052002B070474100080220
:1035E00018BF04200A0E18BF40F001004FF07F42C0
:1035F00032EA010108BF40F00200012808BF05209F
:103600007047000010EE101A08B5444A6846B2EB45
:10361000410F28D94FF0E640B0EB410F94BF002096
:103620004FF0FF3000900098002861DB60EE000A48
:1036300010F0010F45D010F0020FDFED391A9FEDA9
:10364000391A00EEE11ADFED381A40EE811A21EE48
:10365000A01AF0EE400A40EE010A08BFF1EE600A3F
:10366000B0EE600A08BD314B21F0004293423CD9D4
:1036700011F0004FDFED2E0A20EE201ADFED2D0AAB
:1036800019BF31EE601A71EE200A31EE201A71EE88
:10369000600ABDEEE01A11EE100A9FED271A00F045
:1036A000030000EEC10A9FED251A009000EEC10A4A
:1036B0009FED231A00EEC10A9FED221A00EEC10A07
:1036C000B1E79FED211A9FED210A10F0020F00EEE5
:1036D000810A9FED1F1A00EE801AB7EE000A00EE75
:1036E000810A18BFB1EE400A08BD01F011F89AE74F
:1036F00010EE100A4000B0F17F4F3CBFB7EE000A59
:1037000008BD07D14FF00100FCF7FBFDBDE8084004
:1037100000F0EEBFBDE8084000F0E6BFB61F927EA5
:10372000336D4C39DA82083CA0AA2ABE490E4946BC
:1037300083F9223F0000004B0000C93F00A0FD3983
:103740000020A2331A61342CB93AB2BACA9F2A3D7A
:10375000DDFFFFBE2DED020B019820F0004001902F
:103760009DED000B02B070472DE9F04D2DED040BDF
:103770002DED0E8B96B0DDE92550279CDDF890A04D
:1037800025F0004624F00048BAF1000F14BF0121D3
:10379000002101EB4502FC4953184A1093422AD3F9
:1037A000002814BF0123002303EB44030B44F74913
:1037B0008B4220D358EA00019FEDF59B76D0DFF8CD
:1037C000D8B35D4503D1BAF1000F05D188E0BAF155
:1037D000000F08BF002100D0012101EB450111F5C8
:1037E000001F08D8002814BF0121002101EB44016B
:1037F00011F5001F0BD99DED261B9DED240B16B076
:10380000BDEC0E8B04B0BDE8F04D00F031BF0027D9
:10381000002DBCBFE149884521DAE1498845A8BFB0
:1038200002271CDAC3451ADCDE4901EB28511429B2
:1038300008DDC1F1340220FA02F101FA02F28242FB
:103840000DD108E058B9C1F1140228FA02F101FAC9
:1038500002F2424503D101F00101C1F1020756EA2B
:103860000A0124D1002C22DA002D18BF022F01D02A
:10387000012F0AD00220FCF744FD16B0BDEC0E8BE0
:1038800004B0BDE8F04D00F0DBBE0220FCF739FDCE
:1038900000F0D6FE51EC100B01F0C3F841EC100B18
:1038A00016B0BDEC0E8B04B0BDE8F08D18E09FEDB6
:1038B000BEAB9FEDBF8B002871D1B848804522D1A7
:1038C00005F1804010F5801008BFBAF1000F07D055
:1038D000B3450ADC002CA8BF9DED260BE0DA0DE015
:1038E000B0EE490AF0EE690ADAE7002C06DA9DED3F
:1038F000260B51EC100B01F094F86FE0AE487844C1
:1039000090ED000BCCE7D8454DD1002C48DA2EB114
:1039100086423AD1BAF1000F42D126E0BAF1000F47
:1039200013D00220FCF7EDFC00F0BEFE8DED020B83
:103930009DED240B8DED000B10EE900A039961F3C1
:103940001E0003909DED020BAAE78DED02AB9DEDED
:10395000240B1AEE901A10EE900A8DED000B61F315
:103960001E0003909DED020B9AE78DED028B9DEDFD
:10397000240B18EE901A10EE900A8DED000B61F3F7
:103980001E0003909DED020B8AE709DA9DED240BE2
:1039900051EC190B53EC102B01F03EF91EE020E026
:1039A0009DED240B7CE786421BDAB4F1804F0DD0ED
:1039B000A4F10050B0F1FF5013D1002D11DB9DEDAB
:1039C000240B51EC100B00F0F5FF07E09DED240BEC
:1039D00053EC102B51EC100B00F0C2BC41EC100B5F
:1039E0005EE79DED240B51EC100B00F05FFFBAF188
:1039F000000FCDE90E0142D19FED710B46B3A6F148
:103A0000E040B0F17F600CD05E4538D1002D00DA87
:103A1000A7B3022F0CBF01204FF0FF3001F081FA55
:103A2000DCE7002D01DD002C0DDA002D01DD002C7E
:103A30001FDB002D16DA002C14DB012F08BF9FEDD1
:103A4000620B3FF42DAFB0EE4A0AF0EE6A0A27E7A8
:103A5000022F18BF002D0CD0012F0AD1002DFFF628
:103A60001FAF06E0002DB8BF002C08DA012F3FF48D
:103A700017AFB0EE480AF0EE680A11E71BE001202C
:103A800000EBE57050EA070115D0791EB0EE498AC7
:103A9000F0EE698A084308BF9FED4D8B4E48002524
:103AA000804570DD4D494E48884514DDB0420DDB40
:103AB000002C19DB2FE00120FCF723FC16B0BDEC35
:103AC0000E8B04B0BDE8F04D00F0DEBDB34502DC66
:103AD000002C09DC1FE0864202DA002C1BDA03E02E
:103AE0005E452BDD002C16DD0220FCF70AFC00F001
:103AF000DBFD8DED020B53EC1A2B51EC180B01F092
:103B000063FACDE900010399019861F31E00039067
:103B10009DED020BC4E60220FCF7F3FB00F0D4FDA0
:103B200010EE901A18EE900A8DED020B8DED008BC1
:103B300061F31E0003909DED020BB1E69DED0E0BAF
:103B400053EC192B51EC100B01F04AFC9FED260BA6
:103B5000CDE9080153EC102B9DED080B51EC100B37
:103B600001F032FA9FED221B53EC112B01F060FBA8
:103B70009DED081B53EC112B01F026FA9FED1E1B47
:103B800053EC112B3CE08CE0FFFF1F00FFFF0F0008
:103B9000000000000000F03F0000F03F0000F07F58
:103BA0000000404301FCFFFF000000000000F07F28
:103BB0000000000000000000261F000000000000C0
:103BC0000000000000000080000000000000F0FF86
:103BD000000000000000F0BF0000E0410000F043E2
:103BE000FFFFEF3F00000000000000000000D03F9A
:103BF000555555555555D53F000000000000E03F94
:103C000001F016FB9DED080B41EC1A0B53EC102B49
:103C100051EC100B01F0D8F953EC1A2B01F0D4F948
:103C200041EC1A0B9FEDFE0B53EC102B9DED080B96
:103C300051EC100B01F0C8F941EC1B0B9FEDFA0B96
:103C400051EC1A0B53EC102B01F0BEF941EC1A0B9E
:103C50009FEDF70B53EC102B9DED080B51EC100B67
:103C600001F0B2F953EC1A2B01F0BAFB41EC1A0B3C
:103C700051EC1B0B53EC1A2B00F012FF0690CDE910
:103C800006519DED060B53EC1B2B51EC100B01F074
:103C9000A7FB53EC1A2B01F0CBFA41EC100B00F010
:103CA000A1B90020B6F5801F0EDA9FEDE30B53ECAF
:103CB000102B9DED0E0B51EC100B01F085F9CDE9A9
:103CC0000E016FF034000E4600EB2650A0F2FF37D5
:103CD000C6F31300DA4940F07F6646F0405688424A
:103CE000D8BF002408DDD7498142C8BF012403DCC6
:103CF0000024A6F580167F1CD348784400EBC4004E
:103D00000F9690ED00CB9DED0E0B53EC1C2B51EC60
:103D1000100B01F065FB9DED0E0B41EC1B0B53EC02
:103D20001C2B51EC100B00F0BBFE41EC100B51ECC6
:103D3000190B53EC102B00F06FFF41EC1D0B51ECF5
:103D40001B0B53EC1D2B01F03FF941EC1A0BBF4844
:103D50008DED10AB7844109590ED000B4FF00050B6
:103D600040EA660000EB84408DED080B00F5002072
:103D700009909DED080B53EC1C2B51EC100B01F03E
:103D80002FFB9DED0E1B53EC112B01F051FA41EC72
:103D9000100B53EC102B9DED100B51EC100B01F0A0
:103DA00013F99DED080B41EC1C0B53EC102B9DED12
:103DB000100B51EC100B01F007F953EC1B2B01F029
:103DC00037FA53EC1C2B01F00BFB53EC1D2B01F0CD
:103DD000FBF841EC1C0B53EC1A2B51EC1A0B01F0C5
:103DE000F3F841EC1B0B9A480621B0EE4B0AF0EEBB
:103DF0006B0A784400F0A8FBB0EE401AF0EE601AAF
:103E0000B0EE41DAF0EE61DA53EC1B2B51EC1B0BF8
:103E100001F0DAF853EC1D2B01F0D6F89DED100BF4
:103E200041EC1B0B53EC1A2B51EC100B00F038FE3D
:103E300053EC1C2B01F0C8F853EC1B2B00F030FEA8
:103E40009DED100B41EC1B0B53EC102B51EC100BA8
:103E500001F0BAF841EC1D0B9FED7FEB53EC1E2BEC
:103E600000F01EFE53EC1B2B00F01AFE0890CDE96B
:103E700008519DED080B53EC1E2B51EC100B01F07B
:103E8000AFFA53EC1D2B01F0ABFA53EC1B2B01F0F6
:103E9000CFF99DED080B41EC1D0B53EC102B9DED64
:103EA000100B51EC100B01F08FF841EC1B0B53EC95
:103EB0001A2B51EC1D0B01F087F89DED080B41EC1E
:103EC0001A0B53EC102B51EC1C0B01F07DF853EC4A
:103ED0001A2B00F0E5FD41EC1A0B51EC1B0B53ECD7
:103EE0001A2B00F0DDFD0C90CDE90C519DED0C0B73
:103EF00053EC1B2B51EC100B01F072FA53EC1A2B04
:103F000001F096F941EC1B0B9FED550B53EC102B78
:103F10009DED0C0B51EC100B01F056F841EC1A0B17
:103F20009FED510B51EC1B0B53EC102B01F04CF897
:103F300041EC1B0B9FED4E0B53EC102B9DED0C0B2E
:103F400051EC100B01F040F853EC1B2B00F0A8FDD6
:103F500041EC100B4848784400EBC40090ED001B86
:103F600051EC100B53EC112B00F09AFD41EC1B0BA4
:103F7000384600F0D6FFCDE9080153EC1B2B51EC7D
:103F80001A0B00F08DFD41EC100B3C48784400EB1F
:103F9000C40090ED00CB51EC100B53EC1C2B00F047
:103FA0007FFD9DED081B53EC112B00F079FD069071
:103FB000CDE906519DED080B53EC102B9DED060B42
:103FC00051EC100B01F00CFA53EC1C2B01F008FA29
:103FD00053EC1A2B01F004FA53EC1B2B01F028F9D7
:103FE00041EC100B9DED261B53EC102B8DED001BAF
:103FF00000959DED260B51EC100B00F0E5FF9DEDBB
:10400000000B41EC1A0B53EC102B9DED260B51ECE1
:10401000100B01F0E5F99DED061B53EC112B2FE081
:10402000000000604715F73FFE822B654715F73FFC
:1040300044DF5DF80BAE543E00000000000040433A
:104040008E9803007AB60B00A21A0000D01A000066
:10405000DA19000000000000000000000000084025
:10406000000000E009C7EE3FFD033ADC09C7EE3F60
:10407000F5015B14E02F3EBE66180000201800001A
:1040800000F0A2FF53EC1A2B00F00AFD9DED060B89
:1040900041EC1A0B53EC102B9DED000B51EC100B67
:1040A00000F092FFCDE90C019DED0C0B51EC1A0BC9
:1040B00053EC102B00F0F4FCCDE902010C46AA49A8
:1040C0008C422FDB611A084318D19DED0C0B53EC89
:1040D000102B9DED020B51EC100B01F081F941EC1E
:1040E0001B0B9FEDA30B51EC1A0B53EC102B00F0A4
:1040F000D7FC53EC1B2B01F065F82DD20220FCF706
:1041000000F900F0D1FA10EE901A18EE900A8DED39
:10411000020B8DED008B61F31E0003909DED020BF1
:10412000FFF7BEBB944A24F00041914214D3934957
:10413000214408437FF4EFAC9DED0C0B53EC102BA6
:104140009DED020B51EC100B01F04AF953EC1A2BC8
:1041500001F038F87FF6DFAC24F000408849894A46
:10416000002601EB205182422BDA481C4FF48011CB
:1041700021FA00F02044844AC0F30A517A44A1F2A3
:10418000FF3192ED000B814A8DED080BCA4020EA09
:104190000202C0F3130040F48010C1F1140120FAB0
:1041A00001F60992002CB8BF76429DED080B53EC46
:1041B000102B9DED0C0B51EC100B01F011F9CDE91A
:1041C0000C019DED0C0B51EC1A0B53EC102B00F075
:1041D00067FC9FED6F0B0890CDE9085153EC102B55
:1041E0009DED080B51EC100B00F0EEFE41EC1B0BAB
:1041F0009FED690B53EC102B9DED080B51EC100B50
:1042000000F0E2FE9DED0C0B41EC1C0B53EC102B6F
:104210009DED080B51EC100B01F0E2F853EC1A2B5A
:1042200001F006F89FED5E1B53EC112B00F0CCFE65
:1042300053EC1C2B00F034FC41EC1A0B51EC1B0B23
:1042400053EC1A2B00F02CFCCDE902019DED020B82
:1042500053EC1B2B51EC100B01F0C2F853EC1A2B52
:1042600000F0E6FF9DED020B41EC1A0B53EC102B16
:1042700051EC100B00F0A8FECDE908014A489DED75
:10428000080B0521784400F05FF99DED081B51EC07
:10429000100B53EC112B00F097FE9DED021B53EC1D
:1042A000112B00F0C5FFCDE906019DED020B53EC8B
:1042B0001A2B51EC100B00F087FE53EC1A2B00F078
:1042C000EFFB9FED3B0B41EC1A0B53EC102B9DEDDC
:1042D000060B51EC100B01F083F89DED060B41EC41
:1042E0001B0B53EC102B9DED020B51EC100B00F04F
:1042F0006BFE53EC1B2B00F08FFC53EC1A2B01F0E0
:104300006FF89DED021B53EC112B01F069F853EC93
:10431000192B00F08DFFCDE9020101EB06500115CC
:104320000029C8BF039015DC9DED020B324651EC0D
:10433000100B01F0ECF9FFF739F9042808BF00F081
:10434000C3F932469DED020B51EC100B01F0DFF981
:10435000CDE902019DED020B51EC180B53EC102B33
:1043600000F032FEFFF73ABB000090400000000072
:10437000FE822B654715973C00CC904000346F3F80
:1043800001FCFFFF0000E03FA8160000FFFF0F0048
:1043900000000000432EE63F396CA80C615C20BE93
:1043A000EF39FAFE422EE63F7815000000000000CB
:1043B000000000000000004000B510EE101A2DEDC6
:1043C000028B81B0524A6846B2EB410F2ED94FF0B2
:1043D000E640B0EB410F94BF00204FF0FF3000905B
:1043E0000098B0EE408A00286ADB10F0010F4BD035
:1043F00068EE080A9FED471A9FED470A00EE810A12
:104400009FED461A10F0020F00EE801AB7EE000A78
:1044100000EE810A02BF01B0BDEC028B00BD00BFFF
:1044200001B0B1EE400ABDEC028B00BD3C4B21F067
:104430000042934241D911F0004FDFED3A0A20EEDD
:10444000201ADFED390A19BF31EE601A71EE200A29
:1044500031EE201A71EE600ABDEEE01A11EE100A7C
:104460009FED321A00F0030000EEC10A9FED301AF2
:10447000009000EEC10A9FED2F1A00EEC10A9FEDD9
:104480002E1A00EEC10AABE728EE080A9FED2B1AA0
:10449000DFED2B0A10F0020F40EE410A9FED291AC2
:1044A00000EE201A61EE000AB0EE480A08EE200A7B
:1044B000B6D101B0BDEC028B00BD00F029F98FE749
:1044C00018EE100A4000B0F17F4F0DD218EE100A1E
:1044D000FFF784F8042808BF00F012F9B0EE480A8C
:1044E00001B0BDEC028B00BD09D10120FBF709FF33
:1044F00001B0BDEC028B5DF804EB00F0F9B801B03F
:10450000B0EE480ABDEC028B5DF804EB00F0ECB8AD
:10451000B61F927EB93AB2BACA9F2A3DDDFFFFBEEE
:10452000490E494683F9223F0000004B0000C93F75
:1045300000A0FD390020A2331A61342C336D4C39B0
:10454000DA82083CA0AA2ABE70B504462DED028B83
:104550004D1E00EBC500B0EE408AF0EE608A90ED93
:10456000000B35F0060017D053EC182B51EC100B54
:1045700000F02AFD41EC100B6D1E04EBC50090ED20
:10458000001B51EC100B53EC112B00F089FA41EC9D
:10459000100B35F00600E7D1022D36D0042D1CD0CB
:1045A000062D1CBFBDEC028B70BD53EC182B51ECDB
:1045B000100B00F009FD94ED0A1B53EC112B00F0D9
:1045C0006FFA53EC182B00F0FFFC94ED081B53EC32
:1045D000112B00F065FA41EC100B53EC182B51EC49
:1045E000100B00F0F1FC94ED061B53EC112B00F0C6
:1045F00057FA53EC182B00F0E7FC94ED040B53EC46
:10460000102B00F04DFA41EC100B53EC182B51EC31
:10461000100B00F0D9FC94ED021B53EC112B00F0B1
:104620003FFA53EC182B00F0CFFC94ED001B53EC39
:10463000112B00F035FABDEC028B41EC100B70BD74
:104640009FED070B10B553EC102B9FED070B51ECB2
:10465000100B00F0E1FA41EC100B10BD000000005F
:104660000000000000000000000000000000F03F1B
:1046700010B553EC112B51EC100B00F011FA41EC7A
:10468000100B10BD000000009FED050B10B553ECA2
:10469000102B51EC100B00F0BFFA41EC100B10BDC9
:1046A00000000000000000009FED050B10B553EC6A
:1046B000102B51EC100B00F087FC41EC100B10BDDF
:1046C00000000000000000709FED050B10B553ECDA
:1046D000102B51EC100B00F077FC41EC100B10BDCF
:1046E000000000000000001030EE000A70470000DB
:1046F000DFED020A80EEA00A704700000000000013
:104700009FED020A20EE000A704700000000001032
:104710002DE9F0014FF07F42B2EB410F9FBF4FF008
:10472000FF310160BDE8F00170474FF0004242EAFE
:104730000123C1F3C752783A551112F01F0C434CB4
:10474000CCF120067C44C1F3C752A2F178024FEAB3
:10475000621204EB820254F8254008BFD2E90156E8
:1047600012D0556804FA0CF425FA06F73C43976812
:1047700005FA0CF527FA06F8D26807FA0CFCF240A5
:1047800045EA08054CEA0206A4FB034CA5FB0352CC
:10479000A6FB03631D449D4234BF01260026131966
:1047A000334416B1934202D903E0934201D201226D
:1047B00000E00022624402F1200C9206DC0C42EA86
:1047C000443200EE102A5B03DFED210AF8EEC01A36
:1047D00000EE103A4FEA9C1C11F0004FB8EE400A70
:1047E000C0F800C020EE201A00EE105ADFED190AC2
:1047F000B8EE400A20EE200A71EE810A70EE800ABF
:1048000010EE902A02F500626FF30B0200EE902A80
:1048100070EEE11A31EEC11ADFED101A30EE411AD6
:104820009FED0D0A20EE800A01EE210A9FED0C1A81
:1048300000EE810A04BFBDE8F0017047CCF1805161
:104840000160BDE8F001B1EE400A7047E8100000D9
:10485000000000360000802C22AAFD29DB0FC92FA2
:104860000000C92F10B5044601211020FDF730FAD1
:1048700042F2CF000C490885601EC86200204862E1
:1048800001208882002008820120088000BF06489D
:10489000008A0028FBD00020034908800021102056
:1048A000FDF716FA10BD00000010004082B0CDE9FF
:1048B000000121F0004001909DED000B02B051EC91
:1048C000100B7047344800684FF47A72B0FBF2F175
:1048D000481EB0F1807F00D31BE0481E4FF0E0225D
:1048E000506150170F22002804DB13071C0E2B4BBE
:1048F0001C5406E013071D0E294B00F00F04241F63
:104900001D5500BF00204FF0E0229061072010618C
:1049100000BFFCF79FFAFCF729FFFDF77DFAFDF7D2
:104920009FF8FDF7EFF8FDF74FF9FCF70DFCFBF7EB
:10493000EDFDFDF7E9FF4FF47A70FFF793FF29E0F3
:104940001848006830B318480088401C1649088091
:1049500008460088B0F5967F10D1144890ED000A03
:10496000FEF7C6F8114890ED000ADFED110A30EEAF
:10497000200A80ED000A00200B490880B5EE000AED
:10498000FCF764FF08B1FDF7BFFBFDF75DFD0020FC
:1049900004490860D4E700000800002000E400E0BB
:1049A00018ED00E02000002000000020040000209E
:1049B0009A99993E00B52DED048B83B041EC190B0B
:1049C00000F042FC41EC180B18EE100A18EE901A99
:1049D0008DED008B002818BF0120084320F0004017
:1049E000C0F17F6000F1E040C00F14D019EE101A42
:1049F00019EE900A8DED009B002918BF0121084394
:104A000020F00040C0F17F6000F1E040C00F04BF23
:104A10000120FBF776FC51EC180B03B0BDEC048BC6
:104A200000BD81F00041704780F00040704721F0E8
:104A30000041704720F000407047000021F0004224
:104A4000A2F16052B2F5801F01F0004328BFD2F1FD
:104A50007F6C0BD95FEA001C43EAC20242EB507044
:104A600018BF704728BF20F001007047B2F5801FC3
:104A7000BCBF184670474FEA410C1CF5001F02D21C
:104A8000084600F00DBE70B500F048FB000000893C
:104A9000FFF7F6BF4FF00040A0F580007047000020
:104AA00010B591EA030F48BF83F0004300F1A084E2
:104AB000841A71EB030C05D2121943EB0C03001B93
:104AC00061EB0C01DFF824E14FEA1154A4EB135C15
:104AD0001EEA430F18BF9EEA445F73D023EA0E0319
:104AE000DCF1200E21EA045143F4801332D322FA80
:104AF0000CFE10EB0E0023FA0CFE41EB0E01CCF184
:104B0000200E03FA0EFE10EB0E0051F10001B1F57C
:104B1000801FCCF1200E32D201EB045112FA0EF2BA
:104B2000BDE8104058BF7047401C38BF5FEA4202E2
:104B300018BF7047002814BF20F0010041F10001A8
:104B40004FEA410313F5001F38BF7047A1F1C04180
:104B500000F032BB012A43EB0302ACF1200CDCF184
:104B60001F0E32BF4FF0000E23FA0CF310EB0300C0
:104B700041EB0451B4EB115FD0D0A1EB045101F52E
:104B8000801149085FEA300001EB04510ED350F167
:104B9000000038BF12FA0EFE08D1BDE81040C9E788
:104BA000401C38BF5FEA4202CAD1C3E7BDE81040EB
:104BB0004FEA410313F5001F38BF7047A1F1C04110
:104BC00000F0FABA9EEA445F08D011EA5E0FBDE831
:104BD000104004BF01F0004100207047BDE81040C4
:104BE00070B500F09BFA00BF64FBBE3E0000E0FF22
:104BF00002494FF0000000F058BD00BF0000F87FF0
:104C0000491058BFC1F140415B1058BFC3F1404348
:104C10008B42EFF3008070472DE9C04130B4DFF8DC
:104C2000A0C23CEA111418BF3CEA131400F0EC8057
:104C300081EA03051CEA111444EAD57418BF1CEA82
:104C4000131500F0C780A4EB05044FF0004545EABA
:104C5000C12145EAC32341EA505143EA525304F1CA
:104C60007F74994204F500344FEAC0204FEAC22213
:104C700008BF904200F09C804FEA13650FF2401687
:104C8000765D4FEA134506FB05F7C7F1807706FB13
:104C900007F74FEAD737A7FB03687642C8F5803895
:104CA000A7FB06CE38BFA8F1010807FB08E64FF0C6
:104CB000000EA6FB028CE6FB03CEDCF1000CCEF16D
:104CC000004E38BFAEF1010EA6FB0C584FF00007A6
:104CD0004FF00005E6FB0E87A1FB08C6A0FB07CE40
:104CE00016EB0E0645F10005E1FB076515F1E04EF8
:104CF0007EBFA4F580345FEA46066D4116F1800759
:104D000045F100054FEA17274FEA066647EA0567AF
:104D1000A6F1DE46B6F1805F4FEA15251FD9384669
:104D200024F0010C05EBC471BCF1FE6F01EB0C111A
:104D300002D8F0BCBDE8008124425CBF01F5801EB2
:104D40009EEAC47F02D4F0BCBDE80081244238D47E
:104D5000F0BCA1F1C041BDE8004100F02DBA4FEA1E
:104D6000D22242EA43524FEAD323A7FB02864FEAFC
:104D7000D02040EA415007FB03661EEA0E0F4FEABF
:104D8000D12105FB026658BFA6EB0056B6EB0056D4
:104D90004FEA520E4EEAC37E18EB0E0E56EB530E40
:104DA000BDD518EB02085E417F1C55F10005B6E742
:104DB0004FF480154FF000074FF000064FF0000849
:104DC000ADE7F0BC4FF0000001F1C04101F000413F
:104DD000BDE8008111EA0C1F0CEA131500D00CE0AD
:104DE00013EA0C1F00F025804FF00000F0BC81EAB0
:104DF000030101F00041BDE80081F0BCBDE80041C5
:104E000081EA030100F0D8B9F0BCBDE8004170B5FB
:104E100000F084F9097EFC3E00F007B881EA030146
:104E20004FF0000001F00041704781EA030100F0FB
:104E3000C3B9F0BCBDE800414FF000002149704704
:104E4000FFFDFBF9F7F5F4F2F0EEEDEBE9E8E6E44F
:104E5000E3E1E0DEDDDBDAD8D7D5D4D3D1D0CFCDD6
:104E6000CCCBCAC8C7C6C5C4C2C1C0BFBEBDBCBB0F
:104E7000BAB9B8B7B6B5B4B3B2B1B0AFAEADACAB0A
:104E8000AAA9A8A8A7A6A5A4A3A3A2A1A09F9F9EE4
:104E90009D9C9C9B9A999998979796959594939396
:104EA000929191908F8F8E8E8D8C8C8B8B8A89892D
:104EB00088888787868585848483838282818180B0
:104EC0000000FF070000F87F4FEA1153A3F580634D
:104ED000D3F11E03A8BFD3F1200C08DB4FF0004232
:104EE00042EAC12252EA505232FA03F070470942B4
:104EF0000BD4102BC4BF0020704703F5787CBCF1A5
:104F0000FF3F05D04FF0FF3070474FF00000704773
:104F100070B500F003F900BF49922480002070476B
:104F2000F0E710F0004248BF4042B0FA80F310FAB8
:104F300003F10AD0C3F11D0303F580634FEA41502A
:104F400002EB035202EBD12170474FF00000704793
:104F500051EA030C17D41CF5801F58BFBCF5801F05
:104F600000F10680994218BF704708BF9042704711
:104F700007D711F5801F58BF13F5801F19D4994228
:104F80007047894270471CF5801F08D5BCF5801F0B
:104F9000F7D58B4218BF704708BF824270474FF465
:104FA000001C1CEB410F38BF1CEB430F01D28B429E
:104FB000704770B500F0B2F8922449004FF00051EC
:104FC0004FF08053FFF71CBEDFF848C170B51CEAF4
:104FD000111E1EBF1CEA13159EEA0C0F95EA0C0F5A
:104FE00000F06F8081EA030423EA4C134EEAD47E7A
:104FF00021EA4C1141F4801143F48013AE44A1FB2B
:10500000024CA0FB0365AEF17F7E361955EB0C0513
:10501000A1FB034C4CF10003A0FB021C16EB0C0699
:10502000654153F10003094218BF46F0010613F42D
:10503000007F0BD14FEA03314FEA0530340341EAD8
:10504000155140EA16506FF003020AE04FEAC321FF
:105050004FEAC520F40241EA555140EA56506FF03C
:10506000020202EB2E4201EB025585EACE710AD014
:105070005FEA440C18BF24F0004450F1000041F1F5
:10508000000120EAD47040F2FE7C624500D270BD7F
:10509000A84214BF4FF080444FF04044002E08BF98
:1050A0000024BEF1806FA8BFA1F1C041BDE87040EF
:1050B00080F282804FF0000001F1C04101F0004118
:1050C00070479EEA0C0F0CEA131518BF95EA0C0FF7
:1050D00006D04FF0000081EA030E0EF0004170BDD3
:1050E00000F01CF88900013E00F007B800F009B894
:1050F0004FEA430C5FEA5C5C08D081EA030100F0F0
:105100005BB84FEA410C5FEA5C5CF6D14FF00000FF
:10511000014970470000FF070000F87F0EF1020E02
:105120002EF0030E5EF8046B364205D4012A43EBE1
:10513000030515F5001F12D8012841EB010C1CF5E1
:10514000001F0CD80ED14FEAD17C15F5001F0CEBD7
:105150004C0C0CF1020C08BF4CEBD37C04E04FF07C
:10516000080C01E04FEAD37C0CEB4C0526FA05F65F
:1051700006F00706B6F1040C06D20EEB860CBDE86D
:1051800070404CF0010C6047DFE80CF0090B0202A4
:105190004FF000414FF00000A1F5002170BD19460D
:1051A0001046012851EB010418BFD4F5001484BF48
:1051B000002001F0004170BD0808A0F500114FEA81
:1051C0003101704753EA010C17D41CF5801F58BFFA
:1051D000BCF5801F00F106808B4218BF704708BFE6
:1051E0008242704707D713F5801F58BF11F5801F03
:1051F00019D48B4270479B4270471CF5801F08D51D
:10520000BCF5801FF7D5994218BF704708BF904280
:1052100070474FF4001C1CEB430F38BF1CEB410FD1
:1052200001D2994270470FB40CBC03BCFFF7C1BE5A
:1052300091EA030F10B581F000413FF539AC83F0DE
:10524000004300F0D5B800002DE9F04101F5801CC5
:10525000BCF5001FC0F2A9804FEA115C21EA0C5195
:105260000CF1FD0C41F480115FEA5C0C0CF5C07C84
:1052700001D34000494130A4890241EA905187029C
:105280008E0E0A0CA45D04FB04F602FB06F6C6F1C2
:105290004046A4FB0662F60D46EA422606FB06F4EB
:1052A000A4FB01235242C3F1404338BF5B1EA6FB5F
:1052B00002420024E6FB0324D20B42EA4446A6FB4A
:1052C0000623A1FB02E2A3FB07E4E3FB6142644285
:1052D000C2F1404E38BFAEF1010EA6FB04234FF0E1
:1052E0000002E6FB0E32A2FB03463400E2FB6264DE
:1052F000A1FB06E6A4FB07E8E4FB61687642C8F17F
:10530000405838BFA8F10108A2FB06E4A3FB08E55A
:10531000E2FB6854A1FB05E6A7FB04E8E1FB648619
:1053200018F1200556F10006A809A8F11B08B109DB
:1053300008F03F08B8F10A0F40EA86601CD901EB7B
:105340000C51BDE8F08100BFFCF5EEE8E2DDD8D3FA
:10535000CFCBC7C3C0BDB9B6B4B1AEACA9A7A5A3E6
:10536000A19F9D9B9A9896959392908F8D8C8B89F7
:105370008887868584838281A0FB006800FB01F218
:1053800008EB4208B8EB872807D5341858EB01041E
:10539000D5D5401C51F10001D1E7341A78EB010456
:1053A000CDD4401E71F10001C9E75FEA4C0C5FEA01
:1053B0009C5C0DD105D34FF0000001F00041BDE829
:1053C000F081BDE8F04170B5FFF7A8FE6DDBFFBED0
:1053D000BDE8F0414FF00000004970470000F87F41
:1053E00010B591EA030F48BF83F000433FF560AB6F
:1053F000841A71EB030C07D212198CF0004C43EBAA
:105400000C03001B61EB0C01DFF8A4E14FEA11541F
:10541000A4EB135C1EEA430F18BF9EEA445F00F042
:10542000B08023EA6E03524221EA0451C3EB6E03BB
:1054300038BF5B1EDCF1200E25D322FA0CFE10EBE8
:105440000E0043FA0CFE41EB0E01CCF1200E03FAE4
:105450000EFE10EB0E0051F10001CCF1200E29D40C
:1054600012FA0EF201EB0451BDE8104058BF70472C
:10547000401C1CBFB2F1004F704700280CBF491CF4
:1054800020F00100704712EB020E43EB030218BF3D
:105490004FF0010E4EEA4202ACF1200CDCF11E0E80
:1054A00054D943FA0CFE10EB0E0051F1FF31CCF150
:1054B0001E0ED5D50EF1010E12FA0EFE404141EB43
:1054C000010101EB445C5FEA5C5C10D910EBDE701B
:1054D00001EB045138BFBEF1004FBDE8104018BFCA
:1054E000704700280CBF491C20F00100704730D2E3
:1054F0004FEAD42C11F5001124F400641BD0B1FA4A
:1055000081F20B3AA41AA41ED2F12003914030FA82
:1055100003F31943904001EBCC71002C01EB0451D3
:10552000BDE81040A8BF704701F1C0414FF0000036
:1055300001F000417047B0FA80F310FA03F100D196
:1055400010BDE41A173C4805C90AE4E701EB045111
:1055500010BD491001EB0451BDE810404FEA300086
:1055600002E04FF0000170474A0008BF0042F8D047
:10557000B2F5001F28BF704701F000414FF0000056
:1055800070479EEA445F07D011EA5E0FBDE8104005
:1055900004BF002100207047BDE8104070B5FFF740
:1055A000BDFD00BF40DFF63E83F00041104670476E
:1055B0000000E0FF43004FEAD30C4FEA3C0C4340AD
:1055C0001FBF40070CF1605113F0FE4F70471CF0F5
:1055D000006F03D100200CF0004170470CF0004335
:1055E00043EA507010B540EACC0000F00EF800BF5E
:1055F000000000924FEA0001FFF7DEBD4FF00041CE
:105600004FF00000A1F5002170470EF1020E2EF0C0
:10561000030E5EF8044B244204D44FEA4102B2F177
:105620007F4F11D84FEA4003B3F17F4F0CD80ED112
:105630004FEAD07CB2F17F4F0CEB4C0C0CF1020C1A
:1056400008BF4CEBD17C04E04FF0080C01E04FEABE
:10565000D17C0CEB4C0324FA03F404F00704B4F1FE
:10566000040C06D20EEB840CBDE810404CF0010C8B
:105670006047DFE80CF0070802024FF00040A0F599
:10568000800010BD0846420018BFD2F1807288BF6A
:1056900000F0004010BD4FF04070E1EE100A70477E
:1056A000FF2141EAD050C00570470CF00F03092BD1
:1056B00008BF082000F059800A2B0BD0082B18BF18
:1056C000704708BF1CF0400F0AD04FF000004FF0A9
:1056D000000170471CF0400F18BF4FF000407047AA
:1056E0001CF0100F08D020F0704300F07F4242EA17
:1056F000D3014FEA4370704700F0604021F07F42D1
:1057000042EA000201F07F4040EA727070474FF0B9
:10571000FF0C4CF4E06C1CEA11531CBF9CEA030C18
:105720009445C2BFDA4201EB02517047002B0DD005
:10573000BCF1000F0FD0002A01F00041A4BF41F0DE
:10574000E04141F07F614FF00000704701F00041FF
:105750004FF00000704750EA01334FF09B0C18BF28
:105760004CF0806C7FF444AA70471CF4801F11D069
:105770001CF4E02F03D06FEACC31490070474FF0A2
:105780004050EFF3008222F0704242EA000282F3BE
:10579000008870474FF000007047000000000000D4
:1057A000000000000000F03F000000000000F83F93
:1057B00000000000000000000000004003B8E23FCD
:1057C000000000000000000006D0CF43EBFD4C3E7F
:1057D000033333333333E33FFFAB6FDBB66DDB3F74
:1057E0004D268F515555D53F01411DA96074D13FBC
:1057F00065DBC9934A86CD3FEF4E454A287ECA3FB6
:105800003E5555555555C53F93BDBE166CC166BF37
:105810002CDE25AF6A56113FF16BD2C541BDBBBE30
:10582000D0A4BE726937663E000000000000000090
:10583000000000006E83F9A22915444ED15727FCC1
:10584000C0DD34F5999562DB4190433CAB6351FE7A
:10585000705800080000002028010000C401000862
:10586000985900082801002020070000E0010008E6
:1058700000000000CDCCCC3D007A030A00000000FF
:1058800000000000010203040607080900000000F0
:1058900000000000000000000102030401020304F4
:1058A00006070809000000000000000000000000DA
:1058B00053204D2048205748202B303030303020A6
:1058C0002B30303030302045000000000000B44262
:1058D0000000B44200000000000000009A9932C3AA
:1058E000000009430000000000000000000000006C
:1058F00000000000000000000000000000000000A8
:105900000000000000000000000000000000000097
:105910000000000000000000000000000000000087
:105920000000000000000000000000000000000077
:105930000000000000000000000000000000000067
:105940000000000000000000000000000000000057
:10595000000000000000000000000000333313408E
:10596000000030403B70CE3B3333134000003040EA
:105970003B70CE3B00000000000000000000000073
:105980000000000000000000000000000000000017
:0859900000000000000000000F
:040000050800018965
:00000001FF
