:020000040800F2
:10000000C806002029020008C1040008B90400083D
:10001000BD040008E3020008610A000800000000B7
:100020000000000000000000000000006906000859
:10003000E1030008000000003D0500085907000822
:10004000430200084302000843020008430200087C
:10005000430200084302000843020008430200086C
:10006000430200084302000843020008430200085C
:1000700043020008E90200084302000843020008A6
:10008000430200084302000843020008430200083C
:10009000430200084302000843020008430200082C
:1000A000430200084302000843020008430200081C
:1000B000430200084302000843020008430200080C
:1000C00043020008430200084302000843020008FC
:1000D00043020008430200084302000843020008EC
:1000E00043020008430200084302000843020008DC
:1000F00043020008430200084302000843020008CC
:1001000043020008430200084302000843020008BB
:1001100043020008430200084302000843020008AB
:10012000430200084302000843020008430200089B
:10013000430200084302000843020008430200088B
:10014000430200084302000843020008430200087B
:10015000430200084302000843020008430200086B
:10016000430200084302000843020008430200085B
:10017000430200084302000843020008430200084B
:10018000430200084302000800F002F800F03CF8C7
:100190000AA090E8000C82448344AAF10107DA45E2
:1001A00001D100F031F8AFF2090EBAE80F0013F0F8
:1001B000010F18BFFB1A43F0010318474009000064
:1001C00060090000103A24BF78C878C1FAD85207F5
:1001D00024BF30C830C144BF04680C6070470000C1
:1001E0000023002400250026103A28BF78C1FBD840
:1001F000520728BF30C148BF0B6070471FB500F0E1
:1002000077FC1FBD10B510BD00F031F81146FFF7A7
:10021000F5FF00F027FC00F04FF803B4FFF7F2FF02
:1002200003BC00F057F80000094880470948004720
:10023000FEE7FEE7FEE7FEE7FEE7FEE7FEE7FEE796
:10024000FEE7FEE704480549054A064B70470000F3
:100250007507000889010008C8000020C8060020B2
:10026000C8020020C80200207047704770477546DA
:1002700000F02CF8AE4605006946534620F0070012
:10028000854618B020B5FFF7DDFFBDE820404FF0F0
:1002900000064FF000074FF000084FF0000B21F070
:1002A0000701AC46ACE8C009ACE8C009ACE8C0093D
:1002B000ACE8C0098D46704710B50446AFF3008026
:1002C0002046BDE81040FFF7A8BF00000048704777
:1002D0006800002001491820ABBEFEE7260002009E
:1002E000704700BFFEE7000010B50449044800F065
:1002F00009F80121024800F01FF810BD008020100D
:10030000406002400246094B9A4201D2084801E08F
:100310000648103801F000531BB1064B0B40C36078
:1003200002E0044B0B408360704700001064024001
:10033000006002407D0F7D0F21B1026842F0010292
:10034000026003E0026822F001020260704710B50B
:1003500001F080034BB122B1436943F08003436154
:1003600003E0436923F08003436180290BD02AB165
:10037000036801F01E042343036004E0036801F0F6
:100380001E04A343036010BD10B500220268134B86
:100390001A40CC680B6823434C6923438C69234380
:1003A000CC6923430C6A23434C6A23438C6A23435E
:1003B0004C6B23438C6B23431A430260426922F047
:1003C0000702D1E90B3423431A4342610B694360AE
:1003D0004B6883608B68C36010BD00003F801CF0D9
:1003E0007047F0B50A4600210023002400BF3DE01D
:1003F000012505FA01F3156805EA03049C4234D18E
:1004000005684F000326BE40B543056015794E00D0
:10041000B5400668354305601579012D02D0157980
:10042000022D16D185684F000326BE40B543856076
:1004300055794E00B540866835438560456801268C
:100440008E40B5434560456896798E40B6B23543D7
:100450004560C5684F000326BE40B543C560D579E9
:100460004E00B540C6683543C560491C1029BFD34E
:10047000F0BDF0B5002300244D07ED0E02FA05F3A0
:10048000CE1000F1200555F826504E07F70E0F2626
:10049000BE40B543CF1000F1200646F82750CE10DD
:1004A00000F1200555F8265045EA0304CE1000F16E
:1004B000200545F82640F0BD00BFFEE700BFFEE77F
:1004C0007047000070B5002100230F22C4781CB3D0
:1004D000174C246804F4E064C4F5E064C4F3072115
:1004E000C1F10404E3B20A4144789C40E1B284784B
:1004F000144021430C07210E0E4C057861550478F9
:1005000004F01F050124AC4005786D11AD0005F124
:10051000E025C5F8004109E0047804F01F05012436
:10052000AC40054D0678761145F8264070BD0000B8
:100530000CED00E000E400E080E100E07047000026
:1005400029B1064A12680243044B1A6004E0034AC8
:1005500012688243014B1A60704700003038024035
:1005600029B1064A12680243044B1A6004E0034AA8
:1005700012688243014B1A60704700004038024005
:10058000F0B5002100220024022500260223324F6C
:100590003F6807F00C0121B1042905D0082937D1A3
:1005A00005E02E4F076036E02D4F076033E02A4FFD
:1005B0003F1F3F68C7F38056274F3F1F3F6807F034
:1005C0003F036EB1264FB7FBF3F7DFF88CC0ACF1F9
:1005D000040CDCF800C0CCF3881C07FB0CF40CE026
:1005E0001E4FB7FBF3F7DFF870C0ACF1040CDCF87A
:1005F00000C0CCF3881C07FB0CF4174F3F1F3F686B
:10060000C7F301477F1C7D00B4FBF5F7076002E0EC
:10061000124F076000BF00BF0F4F3F6807F0F001A7
:100620000909104F7A5C0768D74047600A4F3F6856
:1006300007F4E051890A0B4F7A5C4768D74087601E
:10064000054F3F6807F46041490B064F7A5C4768E5
:10065000D740C760F0BD0000083802400024F40015
:10066000002D310140000020704700000CB5002033
:10067000019000903448006840F4803032490860AE
:1006800000BF3148006800F4003000900198401C21
:100690000190009818B90198B0F5A04FF1D12A48FF
:1006A000006800F4003010B10120009001E000204B
:1006B00000900098012846D123484030006840F05F
:1006C00080502149403108602048006840F4404093
:1006D0001E4908601C48083000681B490831086042
:1006E0000846006840F4004008600846006840F48E
:1006F000A05008601648091F0860081F006840F0F5
:100700008070091F086000BF0F48006800F000708B
:100710000028F9D040F205700E4908600A480830F8
:10072000006820F0030008490831086008460068A6
:1007300040F00200086000BF03480830006800F085
:100740000C000828F8D10CBD0038024000700040B1
:1007500014544007003C024001200449086004484A
:100760000068401C02490860704700002C0000200F
:100770002800002010B51548006840F470001349A7
:1007800008601348006840F001001149086000202B
:100790000F49083108600E4800680E4908400C49AE
:1007A00008600D48091D0860081F006820F48020BB
:1007B000091F0860002006490C310860FFF756FF4A
:1007C0004FF0006001498039086010BD88ED00E0FD
:1007D00000380240FFFFF6FE1030002400B597B04D
:1007E00001215548FFF7ACFE0121C804FFF7B8FE10
:1007F0000320159002208DF8580000208DF85A0033
:1008000003208DF8590001208DF85B0015A94B4895
:10081000FFF7E7FD082200214848FFF72AFE0822DB
:1008200001214648FFF725FE4FF4E13011900020EA
:10083000ADF84800ADF84A00ADF84C00ADF85000F6
:100840000C20ADF84E0011A93D4800F09FF80121A1
:100850003B4800F086F84021394800F079F8012241
:100860008021374800F089F801224021344800F007
:1008700084F84FF0006002903148001D0390314829
:100880000490402005900020069007904FF480606F
:100890000890002009900A900B900C900D90012078
:1008A0000E9000200F90109002A92748FFF76CFDD2
:1008B00001212548FFF740FD4FF0006002902048DD
:1008C000001D03902148049000200590052006900B
:1008D000002007904FF480600890002009900A9053
:1008E0000B904FF440300C9000200D9001200E90A2
:1008F00000200F90109002A913483038FFF744FDF4
:10090000012111483038FFF717FD0D208DF8040044
:1009100000208DF805008DF8060001208DF80700F5
:1009200001A8FFF7CFFD0122102107483038FFF75B
:100930000EFD17B000BD00000100200000000240C5
:10094000004C004050000020706002403000002049
:1009500001F40072B2F5007F00D100BFCA430280EB
:10096000704721B1828942F40052828104E0828979
:100970004DF6FF731A40828170471AB1838A0B4388
:10098000838202E0838A8B43838270472DE9FF478D
:1009900005460E460024A14600BFA046B08900B11E
:1009A00000BF2C8A24F44054F08804432C82AC8984
:1009B00041F20C608443B08831890843718908434F
:1009C0000443AC81AC8A24F44074B0890443AC8203
:1009D0006846FFF7D5FD2048854202D01F48854272
:1009E00002D1DDF80C9001E0DDF80890A88900F450
:1009F000004040B109EBC90000EB09103168490023
:100A0000B0FBF1F707E009EBC90000EB0910316812
:100A10008900B0FBF1F76420B7FBF0F00401200976
:100A2000642101FB1078A88900F4004040B1322015
:100A300000EBC800B0FBF1F000F00700044308E051
:100A4000322000EB08106421B0FBF1F000F00F0041
:100A500004432C81BDE8FF870010014000140140D1
:100A600000BFFEE71D4800684FF47A72B0FBF2F158
:100A7000481EB0F1807F00D31BE0481E4FF0E022FB
:100A8000506150170F22002804DB13071C0E144B73
:100A90001C5406E013071D0E124B00F00F04241F18
:100AA0001D5500BF00204FF0E0229061072010612B
:100AB00000BFFFF793FE10E00B48006868B10B48D9
:100AC0000078401C0949087008460078C82801D100
:100AD00000200870002004490860EDE714000020A1
:100AE00000E400E018ED00E02C00002000000020F1
:100AF0004FF04070E1EE100A704700001C0B000838
:100B00000000002050000000C40100086C0B000829
:100B10005000002078060000E001000800000000FE
:100B200000000000000000000000000000000000C5
:100B3000007A030A00000000000000000102030424
:100B40000607080900000000000000000000000087
:100B50000000000000000000000000000000000095
:0C0B600001020304010203040607080957
:040000050800018965
:00000001FF
